{
  "_format": "hh-sol-artifact-1",
  "contractName": "StudentFactory",
  "sourceName": "contracts/StudentFactory.sol",
  "abi": [
    {
      "anonymous": false,
      "inputs": [
        {
          "indexed": false,
          "internalType": "uint16",
          "name": "",
          "type": "uint16"
        },
        {
          "indexed": false,
          "internalType": "string",
          "name": "",
          "type": "string"
        },
        {
          "indexed": false,
          "internalType": "string",
          "name": "",
          "type": "string"
        },
        {
          "indexed": false,
          "internalType": "address",
          "name": "",
          "type": "address"
        },
        {
          "indexed": false,
          "internalType": "string",
          "name": "",
          "type": "string"
        }
      ],
      "name": "studentCreated",
      "type": "event"
    },
    {
      "inputs": [
        {
          "internalType": "string",
          "name": "_firstName",
          "type": "string"
        },
        {
          "internalType": "string",
          "name": "_lastName",
          "type": "string"
        },
        {
          "internalType": "string",
          "name": "_email",
          "type": "string"
        }
      ],
      "name": "createStudent",
      "outputs": [],
      "stateMutability": "nonpayable",
      "type": "function"
    },
    {
      "inputs": [],
      "name": "getCurrentId",
      "outputs": [
        {
          "internalType": "uint16",
          "name": "",
          "type": "uint16"
        }
      ],
      "stateMutability": "view",
      "type": "function"
    },
    {
      "inputs": [
        {
          "internalType": "address",
          "name": "account",
          "type": "address"
        }
      ],
      "name": "getStudentByAccount",
      "outputs": [
        {
          "internalType": "uint16",
          "name": "",
          "type": "uint16"
        },
        {
          "internalType": "string",
          "name": "",
          "type": "string"
        },
        {
          "internalType": "string",
          "name": "",
          "type": "string"
        },
        {
          "internalType": "address",
          "name": "",
          "type": "address"
        },
        {
          "internalType": "string",
          "name": "",
          "type": "string"
        }
      ],
      "stateMutability": "view",
      "type": "function"
    },
    {
      "inputs": [
        {
          "internalType": "uint16",
          "name": "_id",
          "type": "uint16"
        }
      ],
      "name": "getStudentById",
      "outputs": [
        {
          "internalType": "uint16",
          "name": "",
          "type": "uint16"
        },
        {
          "internalType": "string",
          "name": "",
          "type": "string"
        },
        {
          "internalType": "string",
          "name": "",
          "type": "string"
        },
        {
          "internalType": "address",
          "name": "",
          "type": "address"
        },
        {
          "internalType": "string",
          "name": "",
          "type": "string"
        }
      ],
      "stateMutability": "view",
      "type": "function"
    },
    {
      "inputs": [],
      "name": "getStudentsLength",
      "outputs": [
        {
          "internalType": "uint256",
          "name": "",
          "type": "uint256"
        }
      ],
      "stateMutability": "view",
      "type": "function"
    },
    {
      "inputs": [
        {
          "internalType": "string",
          "name": "_firstName",
          "type": "string"
        },
        {
          "internalType": "string",
          "name": "_lastName",
          "type": "string"
        }
      ],
      "name": "isStudentUnique",
      "outputs": [
        {
          "internalType": "bool",
          "name": "",
          "type": "bool"
        }
      ],
      "stateMutability": "view",
      "type": "function"
    }
  ],
  "bytecode": "0x608060405234801561001057600080fd5b50612785806100206000396000f3fe60806040523480156200001157600080fd5b50600436106200006a5760003560e01c8063409002d0146200006f5780636782ed1b14620000a95780636c14386214620000df578063b807be381462000101578063e4c272231462000123578063eabbf0c7146200015d575b600080fd5b6200008d600480360381019062000087919062001223565b6200017d565b604051620000a095949392919062001329565b60405180910390f35b620000c76004803603810190620000c19190620014ec565b620006da565b604051620000d691906200158e565b60405180910390f35b620000e9620008dc565b604051620000f89190620015ab565b60405180910390f35b6200010b620008f3565b6040516200011a9190620015e3565b60405180910390f35b6200014160048036038101906200013b919062001631565b62000900565b6040516200015495949392919062001329565b60405180910390f35b6200017b600480360381019062000175919062001663565b62000e39565b005b60006060806000606060005b60018054905081101562000693578673ffffffffffffffffffffffffffffffffffffffff1660018281548110620001c557620001c46200171c565b5b9060005260206000200160009054906101000a900473ffffffffffffffffffffffffffffffffffffffff1673ffffffffffffffffffffffffffffffffffffffff1663db613e816040518163ffffffff1660e01b815260040160206040518083038186803b1580156200023657600080fd5b505afa1580156200024b573d6000803e3d6000fd5b505050506040513d601f19601f8201168201806040525081019062000271919062001762565b73ffffffffffffffffffffffffffffffffffffffff1614156200067d5760018181548110620002a557620002a46200171c565b5b9060005260206000200160009054906101000a900473ffffffffffffffffffffffffffffffffffffffff1673ffffffffffffffffffffffffffffffffffffffff16635d1ca6316040518163ffffffff1660e01b815260040160206040518083038186803b1580156200031657600080fd5b505afa1580156200032b573d6000803e3d6000fd5b505050506040513d601f19601f82011682018060405250810190620003519190620017ab565b600182815481106200036857620003676200171c565b5b9060005260206000200160009054906101000a900473ffffffffffffffffffffffffffffffffffffffff1673ffffffffffffffffffffffffffffffffffffffff1663932997f16040518163ffffffff1660e01b815260040160006040518083038186803b158015620003d957600080fd5b505afa158015620003ee573d6000803e3d6000fd5b505050506040513d6000823e3d601f19601f820116820180604052508101906200041991906200185b565b6001838154811062000430576200042f6200171c565b5b9060005260206000200160009054906101000a900473ffffffffffffffffffffffffffffffffffffffff1673ffffffffffffffffffffffffffffffffffffffff16636b1092826040518163ffffffff1660e01b815260040160006040518083038186803b158015620004a157600080fd5b505afa158015620004b6573d6000803e3d6000fd5b505050506040513d6000823e3d601f19601f82011682018060405250810190620004e191906200185b565b60018481548110620004f857620004f76200171c565b5b9060005260206000200160009054906101000a900473ffffffffffffffffffffffffffffffffffffffff1673ffffffffffffffffffffffffffffffffffffffff1663db613e816040518163ffffffff1660e01b815260040160206040518083038186803b1580156200056957600080fd5b505afa1580156200057e573d6000803e3d6000fd5b505050506040513d601f19601f82011682018060405250810190620005a4919062001762565b60018581548110620005bb57620005ba6200171c565b5b9060005260206000200160009054906101000a900473ffffffffffffffffffffffffffffffffffffffff1673ffffffffffffffffffffffffffffffffffffffff16637e79e8ba6040518163ffffffff1660e01b815260040160006040518083038186803b1580156200062c57600080fd5b505afa15801562000641573d6000803e3d6000fd5b505050506040513d6000823e3d601f19601f820116820180604052508101906200066c91906200185b565b9550955095509550955050620006d1565b80806200068a90620018db565b91505062000189565b506040517f08c379a0000000000000000000000000000000000000000000000000000000008152600401620006c8906200199f565b60405180910390fd5b91939590929450565b600080600090505b600180549050811015620008d057600181815481106200070757620007066200171c565b5b9060005260206000200160009054906101000a900473ffffffffffffffffffffffffffffffffffffffff1673ffffffffffffffffffffffffffffffffffffffff1663932997f16040518163ffffffff1660e01b815260040160006040518083038186803b1580156200077857600080fd5b505afa1580156200078d573d6000803e3d6000fd5b505050506040513d6000823e3d601f19601f82011682018060405250810190620007b891906200185b565b805190602001208480519060200120148015620008a9575060018181548110620007e757620007e66200171c565b5b9060005260206000200160009054906101000a900473ffffffffffffffffffffffffffffffffffffffff1673ffffffffffffffffffffffffffffffffffffffff16636b1092826040518163ffffffff1660e01b815260040160006040518083038186803b1580156200085857600080fd5b505afa1580156200086d573d6000803e3d6000fd5b505050506040513d6000823e3d601f19601f820116820180604052508101906200089891906200185b565b805190602001208380519060200120145b15620008ba576000915050620008d6565b8080620008c790620018db565b915050620006e2565b50600190505b92915050565b60008060009054906101000a900461ffff16905090565b6000600180549050905090565b60006060806000606060005b60018054905081101562000df2578661ffff16600182815481106200093657620009356200171c565b5b9060005260206000200160009054906101000a900473ffffffffffffffffffffffffffffffffffffffff1673ffffffffffffffffffffffffffffffffffffffff16635d1ca6316040518163ffffffff1660e01b815260040160206040518083038186803b158015620009a757600080fd5b505afa158015620009bc573d6000803e3d6000fd5b505050506040513d601f19601f82011682018060405250810190620009e29190620017ab565b61ffff16141562000ddc576001818154811062000a045762000a036200171c565b5b9060005260206000200160009054906101000a900473ffffffffffffffffffffffffffffffffffffffff1673ffffffffffffffffffffffffffffffffffffffff16635d1ca6316040518163ffffffff1660e01b815260040160206040518083038186803b15801562000a7557600080fd5b505afa15801562000a8a573d6000803e3d6000fd5b505050506040513d601f19601f8201168201806040525081019062000ab09190620017ab565b6001828154811062000ac75762000ac66200171c565b5b9060005260206000200160009054906101000a900473ffffffffffffffffffffffffffffffffffffffff1673ffffffffffffffffffffffffffffffffffffffff1663932997f16040518163ffffffff1660e01b815260040160006040518083038186803b15801562000b3857600080fd5b505afa15801562000b4d573d6000803e3d6000fd5b505050506040513d6000823e3d601f19601f8201168201806040525081019062000b7891906200185b565b6001838154811062000b8f5762000b8e6200171c565b5b9060005260206000200160009054906101000a900473ffffffffffffffffffffffffffffffffffffffff1673ffffffffffffffffffffffffffffffffffffffff16636b1092826040518163ffffffff1660e01b815260040160006040518083038186803b15801562000c0057600080fd5b505afa15801562000c15573d6000803e3d6000fd5b505050506040513d6000823e3d601f19601f8201168201806040525081019062000c4091906200185b565b6001848154811062000c575762000c566200171c565b5b9060005260206000200160009054906101000a900473ffffffffffffffffffffffffffffffffffffffff1673ffffffffffffffffffffffffffffffffffffffff1663db613e816040518163ffffffff1660e01b815260040160206040518083038186803b15801562000cc857600080fd5b505afa15801562000cdd573d6000803e3d6000fd5b505050506040513d601f19601f8201168201806040525081019062000d03919062001762565b6001858154811062000d1a5762000d196200171c565b5b9060005260206000200160009054906101000a900473ffffffffffffffffffffffffffffffffffffffff1673ffffffffffffffffffffffffffffffffffffffff16637e79e8ba6040518163ffffffff1660e01b815260040160006040518083038186803b15801562000d8b57600080fd5b505afa15801562000da0573d6000803e3d6000fd5b505050506040513d6000823e3d601f19601f8201168201806040525081019062000dcb91906200185b565b955095509550955095505062000e30565b808062000de990620018db565b9150506200090c565b506040517f08c379a000000000000000000000000000000000000000000000000000000000815260040162000e279062001a37565b60405180910390fd5b91939590929450565b62000e458383620006da565b156200115a5760008060009054906101000a900461ffff1660405162000e6b906200119c565b62000e779190620015ab565b604051809103906000f08015801562000e94573d6000803e3d6000fd5b5090508073ffffffffffffffffffffffffffffffffffffffff16636392f76b856040518263ffffffff1660e01b815260040162000ed2919062001a59565b600060405180830381600087803b15801562000eed57600080fd5b505af115801562000f02573d6000803e3d6000fd5b505050508073ffffffffffffffffffffffffffffffffffffffff1663932754f9846040518263ffffffff1660e01b815260040162000f41919062001a59565b600060405180830381600087803b15801562000f5c57600080fd5b505af115801562000f71573d6000803e3d6000fd5b505050508073ffffffffffffffffffffffffffffffffffffffff1663282b065a836040518263ffffffff1660e01b815260040162000fb0919062001a59565b600060405180830381600087803b15801562000fcb57600080fd5b505af115801562000fe0573d6000803e3d6000fd5b505050506001819080600181540180825580915050600190039060005260206000200160009091909190916101000a81548173ffffffffffffffffffffffffffffffffffffffff021916908373ffffffffffffffffffffffffffffffffffffffff1602179055507fda56846db9b58e4c2a791c05174d90348a6af0a94465efbf2b68168605404c4760008054906101000a900461ffff1685858473ffffffffffffffffffffffffffffffffffffffff1663db613e816040518163ffffffff1660e01b815260040160206040518083038186803b158015620010c057600080fd5b505afa158015620010d5573d6000803e3d6000fd5b505050506040513d601f19601f82011682018060405250810190620010fb919062001762565b866040516200110f95949392919062001329565b60405180910390a160008081819054906101000a900461ffff1680929190620011389062001a7d565b91906101000a81548161ffff021916908361ffff160217905550505062001197565b6040517f08c379a00000000000000000000000000000000000000000000000000000000081526004016200118e9062001afd565b60405180910390fd5b505050565b610c308062001b2083390190565b6000604051905090565b600080fd5b600080fd5b600073ffffffffffffffffffffffffffffffffffffffff82169050919050565b6000620011eb82620011be565b9050919050565b620011fd81620011de565b81146200120957600080fd5b50565b6000813590506200121d81620011f2565b92915050565b6000602082840312156200123c576200123b620011b4565b5b60006200124c848285016200120c565b91505092915050565b600061ffff82169050919050565b6200126e8162001255565b82525050565b600081519050919050565b600082825260208201905092915050565b60005b83811015620012b057808201518184015260208101905062001293565b83811115620012c0576000848401525b50505050565b6000601f19601f8301169050919050565b6000620012e48262001274565b620012f081856200127f565b93506200130281856020860162001290565b6200130d81620012c6565b840191505092915050565b6200132381620011de565b82525050565b600060a08201905062001340600083018862001263565b8181036020830152620013548187620012d7565b905081810360408301526200136a8186620012d7565b90506200137b606083018562001318565b81810360808301526200138f8184620012d7565b90509695505050505050565b600080fd5b600080fd5b7f4e487b7100000000000000000000000000000000000000000000000000000000600052604160045260246000fd5b620013df82620012c6565b810181811067ffffffffffffffff82111715620014015762001400620013a5565b5b80604052505050565b600062001416620011aa565b9050620014248282620013d4565b919050565b600067ffffffffffffffff821115620014475762001446620013a5565b5b6200145282620012c6565b9050602081019050919050565b82818337600083830152505050565b6000620014856200147f8462001429565b6200140a565b905082815260208101848484011115620014a457620014a3620013a0565b5b620014b18482856200145f565b509392505050565b600082601f830112620014d157620014d06200139b565b5b8135620014e38482602086016200146e565b91505092915050565b60008060408385031215620015065762001505620011b4565b5b600083013567ffffffffffffffff811115620015275762001526620011b9565b5b6200153585828601620014b9565b925050602083013567ffffffffffffffff811115620015595762001558620011b9565b5b6200156785828601620014b9565b9150509250929050565b60008115159050919050565b620015888162001571565b82525050565b6000602082019050620015a560008301846200157d565b92915050565b6000602082019050620015c2600083018462001263565b92915050565b6000819050919050565b620015dd81620015c8565b82525050565b6000602082019050620015fa6000830184620015d2565b92915050565b6200160b8162001255565b81146200161757600080fd5b50565b6000813590506200162b8162001600565b92915050565b6000602082840312156200164a5762001649620011b4565b5b60006200165a848285016200161a565b91505092915050565b6000806000606084860312156200167f576200167e620011b4565b5b600084013567ffffffffffffffff811115620016a0576200169f620011b9565b5b620016ae86828701620014b9565b935050602084013567ffffffffffffffff811115620016d257620016d1620011b9565b5b620016e086828701620014b9565b925050604084013567ffffffffffffffff811115620017045762001703620011b9565b5b6200171286828701620014b9565b9150509250925092565b7f4e487b7100000000000000000000000000000000000000000000000000000000600052603260045260246000fd5b6000815190506200175c81620011f2565b92915050565b6000602082840312156200177b576200177a620011b4565b5b60006200178b848285016200174b565b91505092915050565b600081519050620017a58162001600565b92915050565b600060208284031215620017c457620017c3620011b4565b5b6000620017d48482850162001794565b91505092915050565b6000620017f4620017ee8462001429565b6200140a565b905082815260208101848484011115620018135762001812620013a0565b5b6200182084828562001290565b509392505050565b600082601f83011262001840576200183f6200139b565b5b815162001852848260208601620017dd565b91505092915050565b600060208284031215620018745762001873620011b4565b5b600082015167ffffffffffffffff811115620018955762001894620011b9565b5b620018a38482850162001828565b91505092915050565b7f4e487b7100000000000000000000000000000000000000000000000000000000600052601160045260246000fd5b6000620018e882620015c8565b91507fffffffffffffffffffffffffffffffffffffffffffffffffffffffffffffffff8214156200191e576200191d620018ac565b5b600182019050919050565b7f53747564656e7420776974682074686973206163636f756e742061646472657360008201527f73206973206e6f74204e6f7420666f756e640000000000000000000000000000602082015250565b6000620019876032836200127f565b9150620019948262001929565b604082019050919050565b60006020820190508181036000830152620019ba8162001978565b9050919050565b7f53747564656e7420776974682074686973206964206973206e6f74204e6f742060008201527f666f756e64000000000000000000000000000000000000000000000000000000602082015250565b600062001a1f6025836200127f565b915062001a2c82620019c1565b604082019050919050565b6000602082019050818103600083015262001a528162001a10565b9050919050565b6000602082019050818103600083015262001a758184620012d7565b905092915050565b600062001a8a8262001255565b915061ffff82141562001aa25762001aa1620018ac565b5b600182019050919050565b7f546869732073747564656e7420616c7265616479206578697374730000000000600082015250565b600062001ae5601b836200127f565b915062001af28262001aad565b602082019050919050565b6000602082019050818103600083015262001b188162001ad6565b905091905056fe608060405234801561001057600080fd5b50604051610c30380380610c30833981810160405281019061003291906100d5565b33600460006101000a81548173ffffffffffffffffffffffffffffffffffffffff021916908373ffffffffffffffffffffffffffffffffffffffff16021790555080600260006101000a81548161ffff021916908361ffff16021790555050610102565b600080fd5b600061ffff82169050919050565b6100b28161009b565b81146100bd57600080fd5b50565b6000815190506100cf816100a9565b92915050565b6000602082840312156100eb576100ea610096565b5b60006100f9848285016100c0565b91505092915050565b610b1f806101116000396000f3fe608060405234801561001057600080fd5b50600436106100885760003560e01c80637e79e8ba1161005b5780637e79e8ba14610101578063932754f91461011f578063932997f11461013b578063db613e811461015957610088565b8063282b065a1461008d5780635d1ca631146100a95780636392f76b146100c75780636b109282146100e3575b600080fd5b6100a760048036038101906100a291906107e8565b610177565b005b6100b1610221565b6040516100be919061084e565b60405180910390f35b6100e160048036038101906100dc91906108c9565b610239565b005b6100eb6102df565b6040516100f8919061099e565b60405180910390f35b610109610371565b604051610116919061099e565b60405180910390f35b610139600480360381019061013491906108c9565b610403565b005b6101436104a9565b604051610150919061099e565b60405180910390f35b61016161053b565b60405161016e9190610a01565b60405180910390f35b600460009054906101000a900473ffffffffffffffffffffffffffffffffffffffff1673ffffffffffffffffffffffffffffffffffffffff163373ffffffffffffffffffffffffffffffffffffffff1614610207576040517f08c379a00000000000000000000000000000000000000000000000000000000081526004016101fe90610a68565b60405180910390fd5b806003908051906020019061021d929190610565565b5050565b6000600260009054906101000a900461ffff16905090565b600460009054906101000a900473ffffffffffffffffffffffffffffffffffffffff1673ffffffffffffffffffffffffffffffffffffffff163373ffffffffffffffffffffffffffffffffffffffff16146102c9576040517f08c379a00000000000000000000000000000000000000000000000000000000081526004016102c090610a68565b60405180910390fd5b8181600091906102da9291906105eb565b505050565b6060600180546102ee90610ab7565b80601f016020809104026020016040519081016040528092919081815260200182805461031a90610ab7565b80156103675780601f1061033c57610100808354040283529160200191610367565b820191906000526020600020905b81548152906001019060200180831161034a57829003601f168201915b5050505050905090565b60606003805461038090610ab7565b80601f01602080910402602001604051908101604052809291908181526020018280546103ac90610ab7565b80156103f95780601f106103ce576101008083540402835291602001916103f9565b820191906000526020600020905b8154815290600101906020018083116103dc57829003601f168201915b5050505050905090565b600460009054906101000a900473ffffffffffffffffffffffffffffffffffffffff1673ffffffffffffffffffffffffffffffffffffffff163373ffffffffffffffffffffffffffffffffffffffff1614610493576040517f08c379a000000000000000000000000000000000000000000000000000000000815260040161048a90610a68565b60405180910390fd5b8181600191906104a49291906105eb565b505050565b6060600080546104b890610ab7565b80601f01602080910402602001604051908101604052809291908181526020018280546104e490610ab7565b80156105315780601f1061050657610100808354040283529160200191610531565b820191906000526020600020905b81548152906001019060200180831161051457829003601f168201915b5050505050905090565b6000600460009054906101000a900473ffffffffffffffffffffffffffffffffffffffff16905090565b82805461057190610ab7565b90600052602060002090601f01602090048101928261059357600085556105da565b82601f106105ac57805160ff19168380011785556105da565b828001600101855582156105da579182015b828111156105d95782518255916020019190600101906105be565b5b5090506105e79190610671565b5090565b8280546105f790610ab7565b90600052602060002090601f0160209004810192826106195760008555610660565b82601f1061063257803560ff1916838001178555610660565b82800160010185558215610660579182015b8281111561065f578235825591602001919060010190610644565b5b50905061066d9190610671565b5090565b5b8082111561068a576000816000905550600101610672565b5090565b6000604051905090565b600080fd5b600080fd5b600080fd5b600080fd5b6000601f19601f8301169050919050565b7f4e487b7100000000000000000000000000000000000000000000000000000000600052604160045260246000fd5b6106f5826106ac565b810181811067ffffffffffffffff82111715610714576107136106bd565b5b80604052505050565b600061072761068e565b905061073382826106ec565b919050565b600067ffffffffffffffff821115610753576107526106bd565b5b61075c826106ac565b9050602081019050919050565b82818337600083830152505050565b600061078b61078684610738565b61071d565b9050828152602081018484840111156107a7576107a66106a7565b5b6107b2848285610769565b509392505050565b600082601f8301126107cf576107ce6106a2565b5b81356107df848260208601610778565b91505092915050565b6000602082840312156107fe576107fd610698565b5b600082013567ffffffffffffffff81111561081c5761081b61069d565b5b610828848285016107ba565b91505092915050565b600061ffff82169050919050565b61084881610831565b82525050565b6000602082019050610863600083018461083f565b92915050565b600080fd5b600080fd5b60008083601f840112610889576108886106a2565b5b8235905067ffffffffffffffff8111156108a6576108a5610869565b5b6020830191508360018202830111156108c2576108c161086e565b5b9250929050565b600080602083850312156108e0576108df610698565b5b600083013567ffffffffffffffff8111156108fe576108fd61069d565b5b61090a85828601610873565b92509250509250929050565b600081519050919050565b600082825260208201905092915050565b60005b83811015610950578082015181840152602081019050610935565b8381111561095f576000848401525b50505050565b600061097082610916565b61097a8185610921565b935061098a818560208601610932565b610993816106ac565b840191505092915050565b600060208201905081810360008301526109b88184610965565b905092915050565b600073ffffffffffffffffffffffffffffffffffffffff82169050919050565b60006109eb826109c0565b9050919050565b6109fb816109e0565b82525050565b6000602082019050610a1660008301846109f2565b92915050565b7f4e6f7420746865206f776e657200000000000000000000000000000000000000600082015250565b6000610a52600d83610921565b9150610a5d82610a1c565b602082019050919050565b60006020820190508181036000830152610a8181610a45565b9050919050565b7f4e487b7100000000000000000000000000000000000000000000000000000000600052602260045260246000fd5b60006002820490506001821680610acf57607f821691505b60208210811415610ae357610ae2610a88565b5b5091905056fea264697066735822122011275bdc984fb05951cff9e83ff4d8f568c2e04f9f2d64ee647169b3cd0f98e564736f6c63430008090033a264697066735822122007b7436eb712d5310d759663ec0d34e61e5d02ef5237140ce40efd5feb38b39a64736f6c63430008090033",
  "linkReferences": {},
  "deployedLinkReferences": {}
}