{
  "_format": "hh-sol-artifact-1",
  "contractName": "LevelFactory",
  "sourceName": "contracts/LevelFactory.sol",
  "abi": [
    {
      "anonymous": false,
      "inputs": [
        {
          "indexed": false,
          "internalType": "uint16",
          "name": "id",
          "type": "uint16"
        },
        {
          "indexed": false,
          "internalType": "string",
          "name": "levelName",
          "type": "string"
        },
        {
          "indexed": false,
          "internalType": "string",
          "name": "description",
          "type": "string"
        },
        {
          "indexed": false,
          "internalType": "string",
          "name": "imgUrl",
          "type": "string"
        },
        {
          "indexed": false,
          "internalType": "uint16",
          "name": "pathId",
          "type": "uint16"
        }
      ],
      "name": "levelCreated",
      "type": "event"
    },
    {
      "inputs": [
        {
          "internalType": "string",
          "name": "_levelName",
          "type": "string"
        },
        {
          "internalType": "string",
          "name": "_description",
          "type": "string"
        },
        {
          "internalType": "string",
          "name": "_imageUrl",
          "type": "string"
        },
        {
          "internalType": "uint16",
          "name": "_pathId",
          "type": "uint16"
        }
      ],
      "name": "createLevel",
      "outputs": [],
      "stateMutability": "nonpayable",
      "type": "function"
    },
    {
      "inputs": [],
      "name": "getCurrentId",
      "outputs": [
        {
          "internalType": "uint16",
          "name": "",
          "type": "uint16"
        }
      ],
      "stateMutability": "view",
      "type": "function"
    },
    {
      "inputs": [
        {
          "internalType": "uint16",
          "name": "_id",
          "type": "uint16"
        }
      ],
      "name": "getLevelById",
      "outputs": [
        {
          "internalType": "uint16",
          "name": "",
          "type": "uint16"
        },
        {
          "internalType": "string",
          "name": "",
          "type": "string"
        },
        {
          "internalType": "string",
          "name": "",
          "type": "string"
        },
        {
          "internalType": "string",
          "name": "",
          "type": "string"
        },
        {
          "internalType": "uint16",
          "name": "",
          "type": "uint16"
        }
      ],
      "stateMutability": "view",
      "type": "function"
    },
    {
      "inputs": [],
      "name": "getLevelsLength",
      "outputs": [
        {
          "internalType": "uint256",
          "name": "",
          "type": "uint256"
        }
      ],
      "stateMutability": "view",
      "type": "function"
    },
    {
      "inputs": [
        {
          "internalType": "string",
          "name": "_levelName",
          "type": "string"
        }
      ],
      "name": "isLevelUnique",
      "outputs": [
        {
          "internalType": "bool",
          "name": "",
          "type": "bool"
        }
      ],
      "stateMutability": "view",
      "type": "function"
    }
  ],
  "bytecode": "0x608060405234801561001057600080fd5b50611a71806100206000396000f3fe608060405234801561001057600080fd5b50600436106100575760003560e01c806322e3ec6a1461005c5780634eefe23d1461008c5780636c143862146100c0578063709c0983146100de578063d4d46b7c146100fa575b600080fd5b61007660048036038101906100719190610b87565b610118565b6040516100839190610beb565b60405180910390f35b6100a660048036038101906100a19190610c40565b61022b565b6040516100b7959493929190610d04565b60405180910390f35b6100c8610735565b6040516100d59190610d6c565b60405180910390f35b6100f860048036038101906100f39190610d87565b61074c565b005b610102610a13565b60405161010f9190610e5b565b60405180910390f35b600080600090505b600180549050811015610220576001818154811061014157610140610e76565b5b9060005260206000200160009054906101000a900473ffffffffffffffffffffffffffffffffffffffff1673ffffffffffffffffffffffffffffffffffffffff1663f114404c6040518163ffffffff1660e01b815260040160006040518083038186803b1580156101b157600080fd5b505afa1580156101c5573d6000803e3d6000fd5b505050506040513d6000823e3d601f19601f820116820180604052508101906101ee9190610f15565b805190602001208380519060200120141561020d576000915050610226565b808061021890610f8d565b915050610120565b50600190505b919050565b60006060806060600080600090505b6001805490508110156106f0578661ffff16600182815481106102605761025f610e76565b5b9060005260206000200160009054906101000a900473ffffffffffffffffffffffffffffffffffffffff1673ffffffffffffffffffffffffffffffffffffffff16630e06622e6040518163ffffffff1660e01b815260040160206040518083038186803b1580156102d057600080fd5b505afa1580156102e4573d6000803e3d6000fd5b505050506040513d601f19601f820116820180604052508101906103089190610feb565b61ffff1614156106dd576001818154811061032657610325610e76565b5b9060005260206000200160009054906101000a900473ffffffffffffffffffffffffffffffffffffffff1673ffffffffffffffffffffffffffffffffffffffff16630e06622e6040518163ffffffff1660e01b815260040160206040518083038186803b15801561039657600080fd5b505afa1580156103aa573d6000803e3d6000fd5b505050506040513d601f19601f820116820180604052508101906103ce9190610feb565b600182815481106103e2576103e1610e76565b5b9060005260206000200160009054906101000a900473ffffffffffffffffffffffffffffffffffffffff1673ffffffffffffffffffffffffffffffffffffffff1663f114404c6040518163ffffffff1660e01b815260040160006040518083038186803b15801561045257600080fd5b505afa158015610466573d6000803e3d6000fd5b505050506040513d6000823e3d601f19601f8201168201806040525081019061048f9190610f15565b600183815481106104a3576104a2610e76565b5b9060005260206000200160009054906101000a900473ffffffffffffffffffffffffffffffffffffffff1673ffffffffffffffffffffffffffffffffffffffff16631a0925416040518163ffffffff1660e01b815260040160006040518083038186803b15801561051357600080fd5b505afa158015610527573d6000803e3d6000fd5b505050506040513d6000823e3d601f19601f820116820180604052508101906105509190610f15565b6001848154811061056457610563610e76565b5b9060005260206000200160009054906101000a900473ffffffffffffffffffffffffffffffffffffffff1673ffffffffffffffffffffffffffffffffffffffff16639743a6916040518163ffffffff1660e01b815260040160006040518083038186803b1580156105d457600080fd5b505afa1580156105e8573d6000803e3d6000fd5b505050506040513d6000823e3d601f19601f820116820180604052508101906106119190610f15565b6001858154811061062557610624610e76565b5b9060005260206000200160009054906101000a900473ffffffffffffffffffffffffffffffffffffffff1673ffffffffffffffffffffffffffffffffffffffff16639f8982e86040518163ffffffff1660e01b815260040160206040518083038186803b15801561069557600080fd5b505afa1580156106a9573d6000803e3d6000fd5b505050506040513d601f19601f820116820180604052508101906106cd9190610feb565b955095509550955095505061072c565b80806106e890610f8d565b91505061023a565b506040517f08c379a00000000000000000000000000000000000000000000000000000000081526004016107239061108a565b60405180910390fd5b91939590929450565b60008060009054906101000a900461ffff16905090565b61075584610118565b156109d25760008060009054906101000a900461ffff1660405161077890610a20565b6107829190610d6c565b604051809103906000f08015801561079e573d6000803e3d6000fd5b5090508073ffffffffffffffffffffffffffffffffffffffff1663906315b1866040518263ffffffff1660e01b81526004016107da91906110aa565b600060405180830381600087803b1580156107f457600080fd5b505af1158015610808573d6000803e3d6000fd5b505050508073ffffffffffffffffffffffffffffffffffffffff166390c3f38f856040518263ffffffff1660e01b815260040161084591906110aa565b600060405180830381600087803b15801561085f57600080fd5b505af1158015610873573d6000803e3d6000fd5b505050508073ffffffffffffffffffffffffffffffffffffffff16632abff1f2846040518263ffffffff1660e01b81526004016108b091906110aa565b600060405180830381600087803b1580156108ca57600080fd5b505af11580156108de573d6000803e3d6000fd5b505050506001819080600181540180825580915050600190039060005260206000200160009091909190916101000a81548173ffffffffffffffffffffffffffffffffffffffff021916908373ffffffffffffffffffffffffffffffffffffffff1602179055507fcab3838853b8f3f207f6808dfaeaf0a049cb4b2f0fe2454e961e5fbe4ef84a6260008054906101000a900461ffff168686868660405161098a959493929190610d04565b60405180910390a160008081819054906101000a900461ffff16809291906109b1906110cc565b91906101000a81548161ffff021916908361ffff1602179055505050610a0d565b6040517f08c379a0000000000000000000000000000000000000000000000000000000008152600401610a0490611143565b60405180910390fd5b50505050565b6000600180549050905090565b6108d88061116483390190565b6000604051905090565b600080fd5b600080fd5b600080fd5b600080fd5b6000601f19601f8301169050919050565b7f4e487b7100000000000000000000000000000000000000000000000000000000600052604160045260246000fd5b610a9482610a4b565b810181811067ffffffffffffffff82111715610ab357610ab2610a5c565b5b80604052505050565b6000610ac6610a2d565b9050610ad28282610a8b565b919050565b600067ffffffffffffffff821115610af257610af1610a5c565b5b610afb82610a4b565b9050602081019050919050565b82818337600083830152505050565b6000610b2a610b2584610ad7565b610abc565b905082815260208101848484011115610b4657610b45610a46565b5b610b51848285610b08565b509392505050565b600082601f830112610b6e57610b6d610a41565b5b8135610b7e848260208601610b17565b91505092915050565b600060208284031215610b9d57610b9c610a37565b5b600082013567ffffffffffffffff811115610bbb57610bba610a3c565b5b610bc784828501610b59565b91505092915050565b60008115159050919050565b610be581610bd0565b82525050565b6000602082019050610c006000830184610bdc565b92915050565b600061ffff82169050919050565b610c1d81610c06565b8114610c2857600080fd5b50565b600081359050610c3a81610c14565b92915050565b600060208284031215610c5657610c55610a37565b5b6000610c6484828501610c2b565b91505092915050565b610c7681610c06565b82525050565b600081519050919050565b600082825260208201905092915050565b60005b83811015610cb6578082015181840152602081019050610c9b565b83811115610cc5576000848401525b50505050565b6000610cd682610c7c565b610ce08185610c87565b9350610cf0818560208601610c98565b610cf981610a4b565b840191505092915050565b600060a082019050610d196000830188610c6d565b8181036020830152610d2b8187610ccb565b90508181036040830152610d3f8186610ccb565b90508181036060830152610d538185610ccb565b9050610d626080830184610c6d565b9695505050505050565b6000602082019050610d816000830184610c6d565b92915050565b60008060008060808587031215610da157610da0610a37565b5b600085013567ffffffffffffffff811115610dbf57610dbe610a3c565b5b610dcb87828801610b59565b945050602085013567ffffffffffffffff811115610dec57610deb610a3c565b5b610df887828801610b59565b935050604085013567ffffffffffffffff811115610e1957610e18610a3c565b5b610e2587828801610b59565b9250506060610e3687828801610c2b565b91505092959194509250565b6000819050919050565b610e5581610e42565b82525050565b6000602082019050610e706000830184610e4c565b92915050565b7f4e487b7100000000000000000000000000000000000000000000000000000000600052603260045260246000fd5b6000610eb8610eb384610ad7565b610abc565b905082815260208101848484011115610ed457610ed3610a46565b5b610edf848285610c98565b509392505050565b600082601f830112610efc57610efb610a41565b5b8151610f0c848260208601610ea5565b91505092915050565b600060208284031215610f2b57610f2a610a37565b5b600082015167ffffffffffffffff811115610f4957610f48610a3c565b5b610f5584828501610ee7565b91505092915050565b7f4e487b7100000000000000000000000000000000000000000000000000000000600052601160045260246000fd5b6000610f9882610e42565b91507fffffffffffffffffffffffffffffffffffffffffffffffffffffffffffffffff821415610fcb57610fca610f5e565b5b600182019050919050565b600081519050610fe581610c14565b92915050565b60006020828403121561100157611000610a37565b5b600061100f84828501610fd6565b91505092915050565b7f4c6576656c20776974682074686973206964206973206e6f74204e6f7420666f60008201527f756e640000000000000000000000000000000000000000000000000000000000602082015250565b6000611074602383610c87565b915061107f82611018565b604082019050919050565b600060208201905081810360008301526110a381611067565b9050919050565b600060208201905081810360008301526110c48184610ccb565b905092915050565b60006110d782610c06565b915061ffff8214156110ec576110eb610f5e565b5b600182019050919050565b7f4c6576656c206e616d65206973206e6f7420756e697175652021000000000000600082015250565b600061112d601a83610c87565b9150611138826110f7565b602082019050919050565b6000602082019050818103600083015261115c81611120565b905091905056fe608060405234801561001057600080fd5b506040516108d83803806108d883398181016040528101906100329190610093565b806000806101000a81548161ffff021916908361ffff160217905550506100c0565b600080fd5b600061ffff82169050919050565b61007081610059565b811461007b57600080fd5b50565b60008151905061008d81610067565b92915050565b6000602082840312156100a9576100a8610054565b5b60006100b78482850161007e565b91505092915050565b610809806100cf6000396000f3fe608060405234801561001057600080fd5b50600436106100935760003560e01c8063906315b111610066578063906315b11461010c57806390c3f38f146101285780639743a691146101445780639f8982e814610162578063f114404c1461018057610093565b80630e06622e146100985780631a092541146100b65780632abff1f2146100d457806385cef8f3146100f0575b600080fd5b6100a061019e565b6040516100ad91906104b1565b60405180910390f35b6100be6101b5565b6040516100cb9190610565565b60405180910390f35b6100ee60048036038101906100e991906106d0565b610247565b005b61010a60048036038101906101059190610745565b610261565b005b610126600480360381019061012191906106d0565b610281565b005b610142600480360381019061013d91906106d0565b61029b565b005b61014c6102b5565b6040516101599190610565565b60405180910390f35b61016a610347565b60405161017791906104b1565b60405180910390f35b61018861035f565b6040516101959190610565565b60405180910390f35b60008060009054906101000a900461ffff16905090565b6060600280546101c4906107a1565b80601f01602080910402602001604051908101604052809291908181526020018280546101f0906107a1565b801561023d5780601f106102125761010080835404028352916020019161023d565b820191906000526020600020905b81548152906001019060200180831161022057829003601f168201915b5050505050905090565b806003908051906020019061025d9291906103f1565b5050565b80600460006101000a81548161ffff021916908361ffff16021790555050565b80600190805190602001906102979291906103f1565b5050565b80600290805190602001906102b19291906103f1565b5050565b6060600380546102c4906107a1565b80601f01602080910402602001604051908101604052809291908181526020018280546102f0906107a1565b801561033d5780601f106103125761010080835404028352916020019161033d565b820191906000526020600020905b81548152906001019060200180831161032057829003601f168201915b5050505050905090565b6000600460009054906101000a900461ffff16905090565b60606001805461036e906107a1565b80601f016020809104026020016040519081016040528092919081815260200182805461039a906107a1565b80156103e75780601f106103bc576101008083540402835291602001916103e7565b820191906000526020600020905b8154815290600101906020018083116103ca57829003601f168201915b5050505050905090565b8280546103fd906107a1565b90600052602060002090601f01602090048101928261041f5760008555610466565b82601f1061043857805160ff1916838001178555610466565b82800160010185558215610466579182015b8281111561046557825182559160200191906001019061044a565b5b5090506104739190610477565b5090565b5b80821115610490576000816000905550600101610478565b5090565b600061ffff82169050919050565b6104ab81610494565b82525050565b60006020820190506104c660008301846104a2565b92915050565b600081519050919050565b600082825260208201905092915050565b60005b838110156105065780820151818401526020810190506104eb565b83811115610515576000848401525b50505050565b6000601f19601f8301169050919050565b6000610537826104cc565b61054181856104d7565b93506105518185602086016104e8565b61055a8161051b565b840191505092915050565b6000602082019050818103600083015261057f818461052c565b905092915050565b6000604051905090565b600080fd5b600080fd5b600080fd5b600080fd5b7f4e487b7100000000000000000000000000000000000000000000000000000000600052604160045260246000fd5b6105dd8261051b565b810181811067ffffffffffffffff821117156105fc576105fb6105a5565b5b80604052505050565b600061060f610587565b905061061b82826105d4565b919050565b600067ffffffffffffffff82111561063b5761063a6105a5565b5b6106448261051b565b9050602081019050919050565b82818337600083830152505050565b600061067361066e84610620565b610605565b90508281526020810184848401111561068f5761068e6105a0565b5b61069a848285610651565b509392505050565b600082601f8301126106b7576106b661059b565b5b81356106c7848260208601610660565b91505092915050565b6000602082840312156106e6576106e5610591565b5b600082013567ffffffffffffffff81111561070457610703610596565b5b610710848285016106a2565b91505092915050565b61072281610494565b811461072d57600080fd5b50565b60008135905061073f81610719565b92915050565b60006020828403121561075b5761075a610591565b5b600061076984828501610730565b91505092915050565b7f4e487b7100000000000000000000000000000000000000000000000000000000600052602260045260246000fd5b600060028204905060018216806107b957607f821691505b602082108114156107cd576107cc610772565b5b5091905056fea26469706673582212201bf1fa56a70837540bb8a1c4c2b85421752e4a41058d250da942a1e544b40f6664736f6c63430008090033a2646970667358221220da5b03dad121424c107b5c68000da428104b24b89e5ab18cd4f7d775df8fbc1364736f6c63430008090033",
  "linkReferences": {},
  "deployedLinkReferences": {}
}