{
  "_format": "hh-sol-artifact-1",
  "contractName": "LevelFactory",
  "sourceName": "contracts/LevelFactory.sol",
  "abi": [
    {
      "anonymous": false,
      "inputs": [
        {
          "indexed": false,
          "internalType": "uint16",
          "name": "id",
          "type": "uint16"
        },
        {
          "indexed": false,
          "internalType": "string",
          "name": "levelName",
          "type": "string"
        },
        {
          "indexed": false,
          "internalType": "string",
          "name": "description",
          "type": "string"
        },
        {
          "indexed": false,
          "internalType": "string",
          "name": "imgUrl",
          "type": "string"
        },
        {
          "indexed": false,
          "internalType": "uint16",
          "name": "placesLeft",
          "type": "uint16"
        },
        {
          "indexed": false,
          "internalType": "uint16",
          "name": "pathId",
          "type": "uint16"
        }
      ],
      "name": "levelCreated",
      "type": "event"
    },
    {
      "inputs": [
        {
          "internalType": "string",
          "name": "_levelName",
          "type": "string"
        },
        {
          "internalType": "string",
          "name": "_description",
          "type": "string"
        },
        {
          "internalType": "string",
          "name": "_imageUrl",
          "type": "string"
        },
        {
          "internalType": "uint16",
          "name": "_placesLeft",
          "type": "uint16"
        },
        {
          "internalType": "uint16",
          "name": "_pathId",
          "type": "uint16"
        }
      ],
      "name": "createLevel",
      "outputs": [],
      "stateMutability": "nonpayable",
      "type": "function"
    },
    {
      "inputs": [],
      "name": "getCurrentId",
      "outputs": [
        {
          "internalType": "uint16",
          "name": "",
          "type": "uint16"
        }
      ],
      "stateMutability": "view",
      "type": "function"
    },
    {
      "inputs": [
        {
          "internalType": "uint16",
          "name": "_id",
          "type": "uint16"
        }
      ],
      "name": "getLevelById",
      "outputs": [
        {
          "internalType": "uint16",
          "name": "",
          "type": "uint16"
        },
        {
          "internalType": "string",
          "name": "",
          "type": "string"
        },
        {
          "internalType": "string",
          "name": "",
          "type": "string"
        },
        {
          "internalType": "string",
          "name": "",
          "type": "string"
        },
        {
          "internalType": "uint16",
          "name": "",
          "type": "uint16"
        },
        {
          "internalType": "uint16",
          "name": "",
          "type": "uint16"
        }
      ],
      "stateMutability": "view",
      "type": "function"
    },
    {
      "inputs": [
        {
          "internalType": "uint16",
          "name": "_id",
          "type": "uint16"
        }
      ],
      "name": "getLevelObjectById",
      "outputs": [
        {
          "internalType": "contract Level",
          "name": "",
          "type": "address"
        }
      ],
      "stateMutability": "view",
      "type": "function"
    },
    {
      "inputs": [],
      "name": "getLevelsLength",
      "outputs": [
        {
          "internalType": "uint256",
          "name": "",
          "type": "uint256"
        }
      ],
      "stateMutability": "view",
      "type": "function"
    },
    {
      "inputs": [
        {
          "internalType": "uint256",
          "name": "",
          "type": "uint256"
        }
      ],
      "name": "levels",
      "outputs": [
        {
          "internalType": "contract Level",
          "name": "",
          "type": "address"
        }
      ],
      "stateMutability": "view",
      "type": "function"
    }
  ],
  "bytecode": "0x608060405234801561001057600080fd5b50611d8f806100206000396000f3fe608060405234801561001057600080fd5b50600436106100625760003560e01c80633feaadec146100675780634eefe23d146100835780636c143862146100b8578063b2596a67146100d6578063d4d46b7c14610106578063f110ecff14610124575b600080fd5b610081600480360381019061007c9190610dc1565b610154565b005b61009d60048036038101906100989190610e90565b610489565b6040516100af96959493929190610f54565b60405180910390f35b6100c0610a4f565b6040516100cd9190610fca565b60405180910390f35b6100f060048036038101906100eb919061101b565b610a66565b6040516100fd91906110c7565b60405180910390f35b61010e610aa5565b60405161011b91906110f1565b60405180910390f35b61013e60048036038101906101399190610e90565b610ac0565b60405161014b91906110c7565b60405180910390f35b61015d85610b0c565b156104475760008060009054906101000a900461ffff1660405161018090610c1f565b61018a9190610fca565b604051809103906000f0801580156101a6573d6000803e3d6000fd5b5090508073ffffffffffffffffffffffffffffffffffffffff1663906315b1876040518263ffffffff1660e01b81526004016101e2919061110c565b600060405180830381600087803b1580156101fc57600080fd5b505af1158015610210573d6000803e3d6000fd5b505050508073ffffffffffffffffffffffffffffffffffffffff166390c3f38f866040518263ffffffff1660e01b815260040161024d919061110c565b600060405180830381600087803b15801561026757600080fd5b505af115801561027b573d6000803e3d6000fd5b505050508073ffffffffffffffffffffffffffffffffffffffff16632abff1f2856040518263ffffffff1660e01b81526004016102b8919061110c565b600060405180830381600087803b1580156102d257600080fd5b505af11580156102e6573d6000803e3d6000fd5b505050508073ffffffffffffffffffffffffffffffffffffffff1663cf156d7e846040518263ffffffff1660e01b81526004016103239190610fca565b600060405180830381600087803b15801561033d57600080fd5b505af1158015610351573d6000803e3d6000fd5b505050506001819080600181540180825580915050600190039060005260206000200160009091909190916101000a81548173ffffffffffffffffffffffffffffffffffffffff021916908373ffffffffffffffffffffffffffffffffffffffff1602179055507f9aac676ea7a5b160eaaae0e39021e42910092d095acfddd302993bcb6fd3153b60008054906101000a900461ffff1687878787876040516103ff96959493929190610f54565b60405180910390a160008081819054906101000a900461ffff16809291906104269061115d565b91906101000a81548161ffff021916908361ffff1602179055505050610482565b6040517f08c379a0000000000000000000000000000000000000000000000000000000008152600401610479906111d4565b60405180910390fd5b5050505050565b6000606080606060008060005b600180549050811015610a0a578761ffff16600182815481106104bc576104bb6111f4565b5b9060005260206000200160009054906101000a900473ffffffffffffffffffffffffffffffffffffffff1673ffffffffffffffffffffffffffffffffffffffff16630e06622e6040518163ffffffff1660e01b815260040160206040518083038186803b15801561052c57600080fd5b505afa158015610540573d6000803e3d6000fd5b505050506040513d601f19601f820116820180604052508101906105649190611238565b61ffff1614156109f75760018181548110610582576105816111f4565b5b9060005260206000200160009054906101000a900473ffffffffffffffffffffffffffffffffffffffff1673ffffffffffffffffffffffffffffffffffffffff16630e06622e6040518163ffffffff1660e01b815260040160206040518083038186803b1580156105f257600080fd5b505afa158015610606573d6000803e3d6000fd5b505050506040513d601f19601f8201168201806040525081019061062a9190611238565b6001828154811061063e5761063d6111f4565b5b9060005260206000200160009054906101000a900473ffffffffffffffffffffffffffffffffffffffff1673ffffffffffffffffffffffffffffffffffffffff1663f114404c6040518163ffffffff1660e01b815260040160006040518083038186803b1580156106ae57600080fd5b505afa1580156106c2573d6000803e3d6000fd5b505050506040513d6000823e3d601f19601f820116820180604052508101906106eb91906112d5565b600183815481106106ff576106fe6111f4565b5b9060005260206000200160009054906101000a900473ffffffffffffffffffffffffffffffffffffffff1673ffffffffffffffffffffffffffffffffffffffff16631a0925416040518163ffffffff1660e01b815260040160006040518083038186803b15801561076f57600080fd5b505afa158015610783573d6000803e3d6000fd5b505050506040513d6000823e3d601f19601f820116820180604052508101906107ac91906112d5565b600184815481106107c0576107bf6111f4565b5b9060005260206000200160009054906101000a900473ffffffffffffffffffffffffffffffffffffffff1673ffffffffffffffffffffffffffffffffffffffff16639743a6916040518163ffffffff1660e01b815260040160006040518083038186803b15801561083057600080fd5b505afa158015610844573d6000803e3d6000fd5b505050506040513d6000823e3d601f19601f8201168201806040525081019061086d91906112d5565b60018581548110610881576108806111f4565b5b9060005260206000200160009054906101000a900473ffffffffffffffffffffffffffffffffffffffff1673ffffffffffffffffffffffffffffffffffffffff16639dbd916b6040518163ffffffff1660e01b815260040160206040518083038186803b1580156108f157600080fd5b505afa158015610905573d6000803e3d6000fd5b505050506040513d601f19601f820116820180604052508101906109299190611238565b6001868154811061093d5761093c6111f4565b5b9060005260206000200160009054906101000a900473ffffffffffffffffffffffffffffffffffffffff1673ffffffffffffffffffffffffffffffffffffffff16639f8982e86040518163ffffffff1660e01b815260040160206040518083038186803b1580156109ad57600080fd5b505afa1580156109c1573d6000803e3d6000fd5b505050506040513d601f19601f820116820180604052508101906109e59190611238565b96509650965096509650965050610a46565b8080610a029061131e565b915050610496565b506040517f08c379a0000000000000000000000000000000000000000000000000000000008152600401610a3d906113d9565b60405180910390fd5b91939550919395565b60008060009054906101000a900461ffff16905090565b60018181548110610a7657600080fd5b906000526020600020016000915054906101000a900473ffffffffffffffffffffffffffffffffffffffff1681565b60008060009054906101000a900461ffff1661ffff16905090565b600060018261ffff1681548110610ada57610ad96111f4565b5b9060005260206000200160009054906101000a900473ffffffffffffffffffffffffffffffffffffffff169050919050565b600080600090505b600180549050811015610c145760018181548110610b3557610b346111f4565b5b9060005260206000200160009054906101000a900473ffffffffffffffffffffffffffffffffffffffff1673ffffffffffffffffffffffffffffffffffffffff1663f114404c6040518163ffffffff1660e01b815260040160006040518083038186803b158015610ba557600080fd5b505afa158015610bb9573d6000803e3d6000fd5b505050506040513d6000823e3d601f19601f82011682018060405250810190610be291906112d5565b8051906020012083805190602001201415610c01576000915050610c1a565b8080610c0c9061131e565b915050610b14565b50600190505b919050565b61096080620013fa83390190565b6000604051905090565b600080fd5b600080fd5b600080fd5b600080fd5b6000601f19601f8301169050919050565b7f4e487b7100000000000000000000000000000000000000000000000000000000600052604160045260246000fd5b610c9482610c4b565b810181811067ffffffffffffffff82111715610cb357610cb2610c5c565b5b80604052505050565b6000610cc6610c2d565b9050610cd28282610c8b565b919050565b600067ffffffffffffffff821115610cf257610cf1610c5c565b5b610cfb82610c4b565b9050602081019050919050565b82818337600083830152505050565b6000610d2a610d2584610cd7565b610cbc565b905082815260208101848484011115610d4657610d45610c46565b5b610d51848285610d08565b509392505050565b600082601f830112610d6e57610d6d610c41565b5b8135610d7e848260208601610d17565b91505092915050565b600061ffff82169050919050565b610d9e81610d87565b8114610da957600080fd5b50565b600081359050610dbb81610d95565b92915050565b600080600080600060a08688031215610ddd57610ddc610c37565b5b600086013567ffffffffffffffff811115610dfb57610dfa610c3c565b5b610e0788828901610d59565b955050602086013567ffffffffffffffff811115610e2857610e27610c3c565b5b610e3488828901610d59565b945050604086013567ffffffffffffffff811115610e5557610e54610c3c565b5b610e6188828901610d59565b9350506060610e7288828901610dac565b9250506080610e8388828901610dac565b9150509295509295909350565b600060208284031215610ea657610ea5610c37565b5b6000610eb484828501610dac565b91505092915050565b610ec681610d87565b82525050565b600081519050919050565b600082825260208201905092915050565b60005b83811015610f06578082015181840152602081019050610eeb565b83811115610f15576000848401525b50505050565b6000610f2682610ecc565b610f308185610ed7565b9350610f40818560208601610ee8565b610f4981610c4b565b840191505092915050565b600060c082019050610f696000830189610ebd565b8181036020830152610f7b8188610f1b565b90508181036040830152610f8f8187610f1b565b90508181036060830152610fa38186610f1b565b9050610fb26080830185610ebd565b610fbf60a0830184610ebd565b979650505050505050565b6000602082019050610fdf6000830184610ebd565b92915050565b6000819050919050565b610ff881610fe5565b811461100357600080fd5b50565b60008135905061101581610fef565b92915050565b60006020828403121561103157611030610c37565b5b600061103f84828501611006565b91505092915050565b600073ffffffffffffffffffffffffffffffffffffffff82169050919050565b6000819050919050565b600061108d61108861108384611048565b611068565b611048565b9050919050565b600061109f82611072565b9050919050565b60006110b182611094565b9050919050565b6110c1816110a6565b82525050565b60006020820190506110dc60008301846110b8565b92915050565b6110eb81610fe5565b82525050565b600060208201905061110660008301846110e2565b92915050565b600060208201905081810360008301526111268184610f1b565b905092915050565b7f4e487b7100000000000000000000000000000000000000000000000000000000600052601160045260246000fd5b600061116882610d87565b915061ffff82141561117d5761117c61112e565b5b600182019050919050565b7f4c6576656c206e616d65206973206e6f7420756e697175652021000000000000600082015250565b60006111be601a83610ed7565b91506111c982611188565b602082019050919050565b600060208201905081810360008301526111ed816111b1565b9050919050565b7f4e487b7100000000000000000000000000000000000000000000000000000000600052603260045260246000fd5b60008151905061123281610d95565b92915050565b60006020828403121561124e5761124d610c37565b5b600061125c84828501611223565b91505092915050565b600061127861127384610cd7565b610cbc565b90508281526020810184848401111561129457611293610c46565b5b61129f848285610ee8565b509392505050565b600082601f8301126112bc576112bb610c41565b5b81516112cc848260208601611265565b91505092915050565b6000602082840312156112eb576112ea610c37565b5b600082015167ffffffffffffffff81111561130957611308610c3c565b5b611315848285016112a7565b91505092915050565b600061132982610fe5565b91507fffffffffffffffffffffffffffffffffffffffffffffffffffffffffffffffff82141561135c5761135b61112e565b5b600182019050919050565b7f4c6576656c20776974682074686973206964206973206e6f74204e6f7420666f60008201527f756e640000000000000000000000000000000000000000000000000000000000602082015250565b60006113c3602383610ed7565b91506113ce82611367565b604082019050919050565b600060208201905081810360008301526113f2816113b6565b905091905056fe608060405234801561001057600080fd5b5060405161096038038061096083398181016040528101906100329190610093565b806000806101000a81548161ffff021916908361ffff160217905550506100c0565b600080fd5b600061ffff82169050919050565b61007081610059565b811461007b57600080fd5b50565b60008151905061008d81610067565b92915050565b6000602082840312156100a9576100a8610054565b5b60006100b78482850161007e565b91505092915050565b610891806100cf6000396000f3fe608060405234801561001057600080fd5b50600436106100a95760003560e01c806390c3f38f1161007157806390c3f38f1461013e5780639743a6911461015a5780639dbd916b146101785780639f8982e814610196578063cf156d7e146101b4578063f114404c146101d0576100a9565b80630e06622e146100ae5780631a092541146100cc5780632abff1f2146100ea57806385cef8f314610106578063906315b114610122575b600080fd5b6100b66101ee565b6040516100c39190610539565b60405180910390f35b6100d4610205565b6040516100e191906105ed565b60405180910390f35b61010460048036038101906100ff9190610758565b610297565b005b610120600480360381019061011b91906107cd565b6102b1565b005b61013c60048036038101906101379190610758565b6102d1565b005b61015860048036038101906101539190610758565b6102eb565b005b610162610305565b60405161016f91906105ed565b60405180910390f35b610180610397565b60405161018d9190610539565b60405180910390f35b61019e6103af565b6040516101ab9190610539565b60405180910390f35b6101ce60048036038101906101c991906107cd565b6103c7565b005b6101d86103e7565b6040516101e591906105ed565b60405180910390f35b60008060009054906101000a900461ffff16905090565b60606002805461021490610829565b80601f016020809104026020016040519081016040528092919081815260200182805461024090610829565b801561028d5780601f106102625761010080835404028352916020019161028d565b820191906000526020600020905b81548152906001019060200180831161027057829003601f168201915b5050505050905090565b80600390805190602001906102ad929190610479565b5050565b80600460006101000a81548161ffff021916908361ffff16021790555050565b80600190805190602001906102e7929190610479565b5050565b8060029080519060200190610301929190610479565b5050565b60606003805461031490610829565b80601f016020809104026020016040519081016040528092919081815260200182805461034090610829565b801561038d5780601f106103625761010080835404028352916020019161038d565b820191906000526020600020905b81548152906001019060200180831161037057829003601f168201915b5050505050905090565b6000600460029054906101000a900461ffff16905090565b6000600460009054906101000a900461ffff16905090565b80600460026101000a81548161ffff021916908361ffff16021790555050565b6060600180546103f690610829565b80601f016020809104026020016040519081016040528092919081815260200182805461042290610829565b801561046f5780601f106104445761010080835404028352916020019161046f565b820191906000526020600020905b81548152906001019060200180831161045257829003601f168201915b5050505050905090565b82805461048590610829565b90600052602060002090601f0160209004810192826104a757600085556104ee565b82601f106104c057805160ff19168380011785556104ee565b828001600101855582156104ee579182015b828111156104ed5782518255916020019190600101906104d2565b5b5090506104fb91906104ff565b5090565b5b80821115610518576000816000905550600101610500565b5090565b600061ffff82169050919050565b6105338161051c565b82525050565b600060208201905061054e600083018461052a565b92915050565b600081519050919050565b600082825260208201905092915050565b60005b8381101561058e578082015181840152602081019050610573565b8381111561059d576000848401525b50505050565b6000601f19601f8301169050919050565b60006105bf82610554565b6105c9818561055f565b93506105d9818560208601610570565b6105e2816105a3565b840191505092915050565b6000602082019050818103600083015261060781846105b4565b905092915050565b6000604051905090565b600080fd5b600080fd5b600080fd5b600080fd5b7f4e487b7100000000000000000000000000000000000000000000000000000000600052604160045260246000fd5b610665826105a3565b810181811067ffffffffffffffff821117156106845761068361062d565b5b80604052505050565b600061069761060f565b90506106a3828261065c565b919050565b600067ffffffffffffffff8211156106c3576106c261062d565b5b6106cc826105a3565b9050602081019050919050565b82818337600083830152505050565b60006106fb6106f6846106a8565b61068d565b90508281526020810184848401111561071757610716610628565b5b6107228482856106d9565b509392505050565b600082601f83011261073f5761073e610623565b5b813561074f8482602086016106e8565b91505092915050565b60006020828403121561076e5761076d610619565b5b600082013567ffffffffffffffff81111561078c5761078b61061e565b5b6107988482850161072a565b91505092915050565b6107aa8161051c565b81146107b557600080fd5b50565b6000813590506107c7816107a1565b92915050565b6000602082840312156107e3576107e2610619565b5b60006107f1848285016107b8565b91505092915050565b7f4e487b7100000000000000000000000000000000000000000000000000000000600052602260045260246000fd5b6000600282049050600182168061084157607f821691505b60208210811415610855576108546107fa565b5b5091905056fea2646970667358221220b3e4d4674c4b5bc80d135ecd2c25651f7b78ee3ee73e070772bcbcb078779d3364736f6c63430008090033a264697066735822122065d40b0e6002d194d558a2e5a9379c37d5ff5dcda126f9d74091697c5e63ef0c64736f6c63430008090033",
  "linkReferences": {},
  "deployedLinkReferences": {}
}