{
  "_format": "hh-sol-artifact-1",
  "contractName": "SessionFactory",
  "sourceName": "contracts/SessionFactory.sol",
  "abi": [
    {
      "anonymous": false,
      "inputs": [
        {
          "indexed": false,
          "internalType": "uint16",
          "name": "id",
          "type": "uint16"
        },
        {
          "indexed": false,
          "internalType": "string",
          "name": "name",
          "type": "string"
        },
        {
          "indexed": false,
          "internalType": "uint256",
          "name": "date",
          "type": "uint256"
        },
        {
          "indexed": false,
          "internalType": "uint16",
          "name": "levelId",
          "type": "uint16"
        }
      ],
      "name": "sessionCreated",
      "type": "event"
    },
    {
      "inputs": [
        {
          "internalType": "string",
          "name": "_name",
          "type": "string"
        },
        {
          "internalType": "uint256",
          "name": "_date",
          "type": "uint256"
        },
        {
          "internalType": "uint16",
          "name": "_levelId",
          "type": "uint16"
        }
      ],
      "name": "createSession",
      "outputs": [],
      "stateMutability": "nonpayable",
      "type": "function"
    },
    {
      "inputs": [],
      "name": "getCurrentId",
      "outputs": [
        {
          "internalType": "uint16",
          "name": "",
          "type": "uint16"
        }
      ],
      "stateMutability": "view",
      "type": "function"
    },
    {
      "inputs": [
        {
          "internalType": "uint16",
          "name": "_id",
          "type": "uint16"
        }
      ],
      "name": "getSessionById",
      "outputs": [
        {
          "internalType": "uint16",
          "name": "",
          "type": "uint16"
        },
        {
          "internalType": "uint256",
          "name": "",
          "type": "uint256"
        },
        {
          "internalType": "string",
          "name": "",
          "type": "string"
        }
      ],
      "stateMutability": "view",
      "type": "function"
    },
    {
      "inputs": [],
      "name": "getSessionsLength",
      "outputs": [
        {
          "internalType": "uint256",
          "name": "",
          "type": "uint256"
        }
      ],
      "stateMutability": "view",
      "type": "function"
    }
  ],
  "bytecode": "0x608060405234801561001057600080fd5b50611595806100206000396000f3fe608060405234801561001057600080fd5b506004361061004c5760003560e01c8063128e89a8146100515780636c1438621461006f57806379e7371a1461008d578063c716313e146100bf575b600080fd5b6100596100db565b6040516100669190610716565b60405180910390f35b6100776100e8565b604051610084919061074e565b60405180910390f35b6100a760048036038101906100a291906107a9565b6100ff565b6040516100b69392919061086f565b60405180910390f35b6100d960048036038101906100d49190610a0e565b61047a565b005b6000600180549050905090565b60008060009054906101000a900461ffff16905090565b600080606060005b600180549050811015610437578461ffff166001828154811061012d5761012c610a7d565b5b9060005260206000200160009054906101000a900473ffffffffffffffffffffffffffffffffffffffff1673ffffffffffffffffffffffffffffffffffffffff16635d1ca6316040518163ffffffff1660e01b815260040160206040518083038186803b15801561019d57600080fd5b505afa1580156101b1573d6000803e3d6000fd5b505050506040513d601f19601f820116820180604052508101906101d59190610ac1565b61ffff16141561042457600181815481106101f3576101f2610a7d565b5b9060005260206000200160009054906101000a900473ffffffffffffffffffffffffffffffffffffffff1673ffffffffffffffffffffffffffffffffffffffff16635d1ca6316040518163ffffffff1660e01b815260040160206040518083038186803b15801561026357600080fd5b505afa158015610277573d6000803e3d6000fd5b505050506040513d601f19601f8201168201806040525081019061029b9190610ac1565b600182815481106102af576102ae610a7d565b5b9060005260206000200160009054906101000a900473ffffffffffffffffffffffffffffffffffffffff1673ffffffffffffffffffffffffffffffffffffffff1663430fe9c16040518163ffffffff1660e01b815260040160206040518083038186803b15801561031f57600080fd5b505afa158015610333573d6000803e3d6000fd5b505050506040513d601f19601f820116820180604052508101906103579190610b03565b6001838154811061036b5761036a610a7d565b5b9060005260206000200160009054906101000a900473ffffffffffffffffffffffffffffffffffffffff1673ffffffffffffffffffffffffffffffffffffffff166317d7de7c6040518163ffffffff1660e01b815260040160006040518083038186803b1580156103db57600080fd5b505afa1580156103ef573d6000803e3d6000fd5b505050506040513d6000823e3d601f19601f820116820180604052508101906104189190610ba0565b93509350935050610473565b808061042f90610c18565b915050610107565b506040517f08c379a000000000000000000000000000000000000000000000000000000000815260040161046a90610cd3565b60405180910390fd5b9193909250565b60008060009054906101000a900461ffff16604051610498906106f0565b6104a2919061074e565b604051809103906000f0801580156104be573d6000803e3d6000fd5b5090508073ffffffffffffffffffffffffffffffffffffffff1663c47f0027856040518263ffffffff1660e01b81526004016104fa9190610cf3565b600060405180830381600087803b15801561051457600080fd5b505af1158015610528573d6000803e3d6000fd5b505050508073ffffffffffffffffffffffffffffffffffffffff1663d04e48f1846040518263ffffffff1660e01b81526004016105659190610716565b600060405180830381600087803b15801561057f57600080fd5b505af1158015610593573d6000803e3d6000fd5b505050508073ffffffffffffffffffffffffffffffffffffffff1663f19c522e836040518263ffffffff1660e01b81526004016105d0919061074e565b600060405180830381600087803b1580156105ea57600080fd5b505af11580156105fe573d6000803e3d6000fd5b505050506001819080600181540180825580915050600190039060005260206000200160009091909190916101000a81548173ffffffffffffffffffffffffffffffffffffffff021916908373ffffffffffffffffffffffffffffffffffffffff1602179055507f3fe1eab8bc6fbc8c9eb507138920f756ad88b4c05186c58eb32afaf3223f82cb60008054906101000a900461ffff168585856040516106a89493929190610d15565b60405180910390a160008081819054906101000a900461ffff16809291906106cf90610d61565b91906101000a81548161ffff021916908361ffff1602179055505050505050565b6107d380610d8d83390190565b6000819050919050565b610710816106fd565b82525050565b600060208201905061072b6000830184610707565b92915050565b600061ffff82169050919050565b61074881610731565b82525050565b6000602082019050610763600083018461073f565b92915050565b6000604051905090565b600080fd5b600080fd5b61078681610731565b811461079157600080fd5b50565b6000813590506107a38161077d565b92915050565b6000602082840312156107bf576107be610773565b5b60006107cd84828501610794565b91505092915050565b600081519050919050565b600082825260208201905092915050565b60005b838110156108105780820151818401526020810190506107f5565b8381111561081f576000848401525b50505050565b6000601f19601f8301169050919050565b6000610841826107d6565b61084b81856107e1565b935061085b8185602086016107f2565b61086481610825565b840191505092915050565b6000606082019050610884600083018661073f565b6108916020830185610707565b81810360408301526108a38184610836565b9050949350505050565b600080fd5b600080fd5b7f4e487b7100000000000000000000000000000000000000000000000000000000600052604160045260246000fd5b6108ef82610825565b810181811067ffffffffffffffff8211171561090e5761090d6108b7565b5b80604052505050565b6000610921610769565b905061092d82826108e6565b919050565b600067ffffffffffffffff82111561094d5761094c6108b7565b5b61095682610825565b9050602081019050919050565b82818337600083830152505050565b600061098561098084610932565b610917565b9050828152602081018484840111156109a1576109a06108b2565b5b6109ac848285610963565b509392505050565b600082601f8301126109c9576109c86108ad565b5b81356109d9848260208601610972565b91505092915050565b6109eb816106fd565b81146109f657600080fd5b50565b600081359050610a08816109e2565b92915050565b600080600060608486031215610a2757610a26610773565b5b600084013567ffffffffffffffff811115610a4557610a44610778565b5b610a51868287016109b4565b9350506020610a62868287016109f9565b9250506040610a7386828701610794565b9150509250925092565b7f4e487b7100000000000000000000000000000000000000000000000000000000600052603260045260246000fd5b600081519050610abb8161077d565b92915050565b600060208284031215610ad757610ad6610773565b5b6000610ae584828501610aac565b91505092915050565b600081519050610afd816109e2565b92915050565b600060208284031215610b1957610b18610773565b5b6000610b2784828501610aee565b91505092915050565b6000610b43610b3e84610932565b610917565b905082815260208101848484011115610b5f57610b5e6108b2565b5b610b6a8482856107f2565b509392505050565b600082601f830112610b8757610b866108ad565b5b8151610b97848260208601610b30565b91505092915050565b600060208284031215610bb657610bb5610773565b5b600082015167ffffffffffffffff811115610bd457610bd3610778565b5b610be084828501610b72565b91505092915050565b7f4e487b7100000000000000000000000000000000000000000000000000000000600052601160045260246000fd5b6000610c23826106fd565b91507fffffffffffffffffffffffffffffffffffffffffffffffffffffffffffffffff821415610c5657610c55610be9565b5b600182019050919050565b7f53657373696f6e20776974682074686973206964206973206e6f74204e6f742060008201527f666f756e64000000000000000000000000000000000000000000000000000000602082015250565b6000610cbd6025836107e1565b9150610cc882610c61565b604082019050919050565b60006020820190508181036000830152610cec81610cb0565b9050919050565b60006020820190508181036000830152610d0d8184610836565b905092915050565b6000608082019050610d2a600083018761073f565b8181036020830152610d3c8186610836565b9050610d4b6040830185610707565b610d58606083018461073f565b95945050505050565b6000610d6c82610731565b915061ffff821415610d8157610d80610be9565b5b60018201905091905056fe608060405234801561001057600080fd5b506040516107d33803806107d383398181016040528101906100329190610094565b80600160006101000a81548161ffff021916908361ffff160217905550506100c1565b600080fd5b600061ffff82169050919050565b6100718161005a565b811461007c57600080fd5b50565b60008151905061008e81610068565b92915050565b6000602082840312156100aa576100a9610055565b5b60006100b88482850161007f565b91505092915050565b610703806100d06000396000f3fe608060405234801561001057600080fd5b506004361061007d5760003560e01c80635d1ca6311161005b5780635d1ca631146100dc578063c47f0027146100fa578063d04e48f114610116578063f19c522e146101325761007d565b80630e06622e1461008257806317d7de7c146100a0578063430fe9c1146100be575b600080fd5b61008a61014e565b604051610097919061031e565b60405180910390f35b6100a8610166565b6040516100b591906103d2565b60405180910390f35b6100c66101f8565b6040516100d3919061040d565b60405180910390f35b6100e4610202565b6040516100f1919061031e565b60405180910390f35b610114600480360381019061010f9190610571565b61021a565b005b610130600480360381019061012b91906105e6565b610234565b005b61014c6004803603810190610147919061063f565b61023e565b005b6000600360009054906101000a900461ffff16905090565b6060600080546101759061069b565b80601f01602080910402602001604051908101604052809291908181526020018280546101a19061069b565b80156101ee5780601f106101c3576101008083540402835291602001916101ee565b820191906000526020600020905b8154815290600101906020018083116101d157829003601f168201915b5050505050905090565b6000600254905090565b6000600160009054906101000a900461ffff16905090565b806000908051906020019061023092919061025e565b5050565b8060028190555050565b80600360006101000a81548161ffff021916908361ffff16021790555050565b82805461026a9061069b565b90600052602060002090601f01602090048101928261028c57600085556102d3565b82601f106102a557805160ff19168380011785556102d3565b828001600101855582156102d3579182015b828111156102d25782518255916020019190600101906102b7565b5b5090506102e091906102e4565b5090565b5b808211156102fd5760008160009055506001016102e5565b5090565b600061ffff82169050919050565b61031881610301565b82525050565b6000602082019050610333600083018461030f565b92915050565b600081519050919050565b600082825260208201905092915050565b60005b83811015610373578082015181840152602081019050610358565b83811115610382576000848401525b50505050565b6000601f19601f8301169050919050565b60006103a482610339565b6103ae8185610344565b93506103be818560208601610355565b6103c781610388565b840191505092915050565b600060208201905081810360008301526103ec8184610399565b905092915050565b6000819050919050565b610407816103f4565b82525050565b600060208201905061042260008301846103fe565b92915050565b6000604051905090565b600080fd5b600080fd5b600080fd5b600080fd5b7f4e487b7100000000000000000000000000000000000000000000000000000000600052604160045260246000fd5b61047e82610388565b810181811067ffffffffffffffff8211171561049d5761049c610446565b5b80604052505050565b60006104b0610428565b90506104bc8282610475565b919050565b600067ffffffffffffffff8211156104dc576104db610446565b5b6104e582610388565b9050602081019050919050565b82818337600083830152505050565b600061051461050f846104c1565b6104a6565b9050828152602081018484840111156105305761052f610441565b5b61053b8482856104f2565b509392505050565b600082601f8301126105585761055761043c565b5b8135610568848260208601610501565b91505092915050565b60006020828403121561058757610586610432565b5b600082013567ffffffffffffffff8111156105a5576105a4610437565b5b6105b184828501610543565b91505092915050565b6105c3816103f4565b81146105ce57600080fd5b50565b6000813590506105e0816105ba565b92915050565b6000602082840312156105fc576105fb610432565b5b600061060a848285016105d1565b91505092915050565b61061c81610301565b811461062757600080fd5b50565b60008135905061063981610613565b92915050565b60006020828403121561065557610654610432565b5b60006106638482850161062a565b91505092915050565b7f4e487b7100000000000000000000000000000000000000000000000000000000600052602260045260246000fd5b600060028204905060018216806106b357607f821691505b602082108114156106c7576106c661066c565b5b5091905056fea2646970667358221220f5d9d93978b280eb78c3c8de06d638119dead8cac72079ed40b805838eee8bde64736f6c63430008090033a264697066735822122090b2b498376f1e7d7c0c4f05272afed16d8fc9c55ac0633a44a3142a323666d364736f6c63430008090033",
  "linkReferences": {},
  "deployedLinkReferences": {}
}