{
  "_format": "hh-sol-artifact-1",
  "contractName": "SessionFactory",
  "sourceName": "contracts/SessionFactory.sol",
  "abi": [
    {
      "anonymous": false,
      "inputs": [
        {
          "indexed": false,
          "internalType": "uint16",
          "name": "id",
          "type": "uint16"
        },
        {
          "indexed": false,
          "internalType": "uint32",
          "name": "date",
          "type": "uint32"
        },
        {
          "indexed": false,
          "internalType": "uint16",
          "name": "levelId",
          "type": "uint16"
        }
      ],
      "name": "sessionCreated",
      "type": "event"
    },
    {
      "inputs": [
        {
          "internalType": "uint32",
          "name": "_date",
          "type": "uint32"
        },
        {
          "internalType": "uint16",
          "name": "_levelId",
          "type": "uint16"
        }
      ],
      "name": "createSession",
      "outputs": [],
      "stateMutability": "nonpayable",
      "type": "function"
    },
    {
      "inputs": [],
      "name": "getCurrentId",
      "outputs": [
        {
          "internalType": "uint16",
          "name": "",
          "type": "uint16"
        }
      ],
      "stateMutability": "view",
      "type": "function"
    },
    {
      "inputs": [
        {
          "internalType": "uint16",
          "name": "_id",
          "type": "uint16"
        }
      ],
      "name": "getSessionById",
      "outputs": [
        {
          "internalType": "uint16",
          "name": "",
          "type": "uint16"
        },
        {
          "internalType": "uint32",
          "name": "",
          "type": "uint32"
        }
      ],
      "stateMutability": "view",
      "type": "function"
    },
    {
      "inputs": [],
      "name": "getSessionsLength",
      "outputs": [
        {
          "internalType": "uint256",
          "name": "",
          "type": "uint256"
        }
      ],
      "stateMutability": "view",
      "type": "function"
    }
  ],
  "bytecode": "0x608060405234801561001057600080fd5b50610d6d806100206000396000f3fe608060405234801561001057600080fd5b506004361061004c5760003560e01c8063128e89a81461005157806322a81dcf1461006f5780636c1438621461008b57806379e7371a146100a9575b600080fd5b6100596100da565b60405161006691906105e0565b60405180910390f35b61008960048036038101906100849190610676565b6100e7565b005b6100936102ef565b6040516100a091906106c5565b60405180910390f35b6100c360048036038101906100be91906106e0565b610306565b6040516100d192919061071c565b60405180910390f35b6000600180549050905090565b60008060009054906101000a900461ffff16604051610105906105ba565b61010f91906106c5565b604051809103906000f08015801561012b573d6000803e3d6000fd5b5090508073ffffffffffffffffffffffffffffffffffffffff16635823310a846040518263ffffffff1660e01b81526004016101679190610745565b600060405180830381600087803b15801561018157600080fd5b505af1158015610195573d6000803e3d6000fd5b505050508073ffffffffffffffffffffffffffffffffffffffff1663f19c522e836040518263ffffffff1660e01b81526004016101d291906106c5565b600060405180830381600087803b1580156101ec57600080fd5b505af1158015610200573d6000803e3d6000fd5b505050506001819080600181540180825580915050600190039060005260206000200160009091909190916101000a81548173ffffffffffffffffffffffffffffffffffffffff021916908373ffffffffffffffffffffffffffffffffffffffff1602179055507f52b29ab87e6095d56846a17166ce3ca616c2f1de7637e0a9e3cefa2f3c0aa3c260008054906101000a900461ffff1684846040516102a893929190610760565b60405180910390a160008081819054906101000a900461ffff16809291906102cf906107c6565b91906101000a81548161ffff021916908361ffff16021790555050505050565b60008060009054906101000a900461ffff16905090565b60008060005b600180549050811015610579578361ffff1660018281548110610332576103316107f1565b5b9060005260206000200160009054906101000a900473ffffffffffffffffffffffffffffffffffffffff1673ffffffffffffffffffffffffffffffffffffffff16635d1ca6316040518163ffffffff1660e01b815260040160206040518083038186803b1580156103a257600080fd5b505afa1580156103b6573d6000803e3d6000fd5b505050506040513d601f19601f820116820180604052508101906103da9190610835565b61ffff16141561056657600181815481106103f8576103f76107f1565b5b9060005260206000200160009054906101000a900473ffffffffffffffffffffffffffffffffffffffff1673ffffffffffffffffffffffffffffffffffffffff16635d1ca6316040518163ffffffff1660e01b815260040160206040518083038186803b15801561046857600080fd5b505afa15801561047c573d6000803e3d6000fd5b505050506040513d601f19601f820116820180604052508101906104a09190610835565b600182815481106104b4576104b36107f1565b5b9060005260206000200160009054906101000a900473ffffffffffffffffffffffffffffffffffffffff1673ffffffffffffffffffffffffffffffffffffffff1663430fe9c16040518163ffffffff1660e01b815260040160206040518083038186803b15801561052457600080fd5b505afa158015610538573d6000803e3d6000fd5b505050506040513d601f19601f8201168201806040525081019061055c9190610877565b92509250506105b5565b8080610571906108a4565b91505061030c565b506040517f08c379a00000000000000000000000000000000000000000000000000000000081526004016105ac90610970565b60405180910390fd5b915091565b6103a78061099183390190565b6000819050919050565b6105da816105c7565b82525050565b60006020820190506105f560008301846105d1565b92915050565b600080fd5b600063ffffffff82169050919050565b61061981610600565b811461062457600080fd5b50565b60008135905061063681610610565b92915050565b600061ffff82169050919050565b6106538161063c565b811461065e57600080fd5b50565b6000813590506106708161064a565b92915050565b6000806040838503121561068d5761068c6105fb565b5b600061069b85828601610627565b92505060206106ac85828601610661565b9150509250929050565b6106bf8161063c565b82525050565b60006020820190506106da60008301846106b6565b92915050565b6000602082840312156106f6576106f56105fb565b5b600061070484828501610661565b91505092915050565b61071681610600565b82525050565b600060408201905061073160008301856106b6565b61073e602083018461070d565b9392505050565b600060208201905061075a600083018461070d565b92915050565b600060608201905061077560008301866106b6565b610782602083018561070d565b61078f60408301846106b6565b949350505050565b7f4e487b7100000000000000000000000000000000000000000000000000000000600052601160045260246000fd5b60006107d18261063c565b915061ffff8214156107e6576107e5610797565b5b600182019050919050565b7f4e487b7100000000000000000000000000000000000000000000000000000000600052603260045260246000fd5b60008151905061082f8161064a565b92915050565b60006020828403121561084b5761084a6105fb565b5b600061085984828501610820565b91505092915050565b60008151905061087181610610565b92915050565b60006020828403121561088d5761088c6105fb565b5b600061089b84828501610862565b91505092915050565b60006108af826105c7565b91507fffffffffffffffffffffffffffffffffffffffffffffffffffffffffffffffff8214156108e2576108e1610797565b5b600182019050919050565b600082825260208201905092915050565b7f53657373696f6e20776974682074686973206964206973206e6f74204e6f742060008201527f666f756e64000000000000000000000000000000000000000000000000000000602082015250565b600061095a6025836108ed565b9150610965826108fe565b604082019050919050565b600060208201905081810360008301526109898161094d565b905091905056fe608060405234801561001057600080fd5b506040516103a73803806103a783398181016040528101906100329190610093565b806000806101000a81548161ffff021916908361ffff160217905550506100c0565b600080fd5b600061ffff82169050919050565b61007081610059565b811461007b57600080fd5b50565b60008151905061008d81610067565b92915050565b6000602082840312156100a9576100a8610054565b5b60006100b78482850161007e565b91505092915050565b6102d8806100cf6000396000f3fe608060405234801561001057600080fd5b50600436106100575760003560e01c80630e06622e1461005c578063430fe9c11461007a5780635823310a146100985780635d1ca631146100b4578063f19c522e146100d2575b600080fd5b6100646100ee565b6040516100719190610196565b60405180910390f35b610082610105565b60405161008f91906101d0565b60405180910390f35b6100b260048036038101906100ad919061021c565b61011e565b005b6100bc610142565b6040516100c99190610196565b60405180910390f35b6100ec60048036038101906100e79190610275565b610159565b005b60008060069054906101000a900461ffff16905090565b60008060029054906101000a900463ffffffff16905090565b80600060026101000a81548163ffffffff021916908363ffffffff16021790555050565b60008060009054906101000a900461ffff16905090565b80600060066101000a81548161ffff021916908361ffff16021790555050565b600061ffff82169050919050565b61019081610179565b82525050565b60006020820190506101ab6000830184610187565b92915050565b600063ffffffff82169050919050565b6101ca816101b1565b82525050565b60006020820190506101e560008301846101c1565b92915050565b600080fd5b6101f9816101b1565b811461020457600080fd5b50565b600081359050610216816101f0565b92915050565b600060208284031215610232576102316101eb565b5b600061024084828501610207565b91505092915050565b61025281610179565b811461025d57600080fd5b50565b60008135905061026f81610249565b92915050565b60006020828403121561028b5761028a6101eb565b5b600061029984828501610260565b9150509291505056fea264697066735822122082185c299b286516edd166b9f1369946236946705c9b3faafb3421528a882fd664736f6c63430008090033a26469706673582212208c65206c6b9aa63f69988ce5480b8ccc8931f8e6e1bea9076f099bafe885878664736f6c63430008090033",
  "linkReferences": {},
  "deployedLinkReferences": {}
}