{
  "_format": "hh-sol-artifact-1",
  "contractName": "StudentLevelFactory",
  "sourceName": "contracts/StudentLevelFactory.sol",
  "abi": [
    {
      "anonymous": false,
      "inputs": [
        {
          "indexed": false,
          "internalType": "uint16",
          "name": "",
          "type": "uint16"
        },
        {
          "indexed": false,
          "internalType": "uint16",
          "name": "",
          "type": "uint16"
        },
        {
          "indexed": false,
          "internalType": "uint16",
          "name": "",
          "type": "uint16"
        }
      ],
      "name": "studentLevelCreated",
      "type": "event"
    },
    {
      "inputs": [
        {
          "internalType": "uint16",
          "name": "_studentId",
          "type": "uint16"
        },
        {
          "internalType": "uint16",
          "name": "_levelId",
          "type": "uint16"
        },
        {
          "internalType": "address",
          "name": "_lvlFactory",
          "type": "address"
        }
      ],
      "name": "createStudentLevel",
      "outputs": [],
      "stateMutability": "nonpayable",
      "type": "function"
    },
    {
      "inputs": [
        {
          "internalType": "uint16",
          "name": "_levelId",
          "type": "uint16"
        }
      ],
      "name": "getLevelStudentsId",
      "outputs": [
        {
          "internalType": "uint16[]",
          "name": "",
          "type": "uint16[]"
        }
      ],
      "stateMutability": "view",
      "type": "function"
    },
    {
      "inputs": [
        {
          "internalType": "uint16",
          "name": "_studentId",
          "type": "uint16"
        }
      ],
      "name": "getStudentLevelsId",
      "outputs": [
        {
          "internalType": "uint16[]",
          "name": "",
          "type": "uint16[]"
        }
      ],
      "stateMutability": "view",
      "type": "function"
    },
    {
      "inputs": [
        {
          "internalType": "uint16",
          "name": "_studentId",
          "type": "uint16"
        },
        {
          "internalType": "uint16",
          "name": "_levelId",
          "type": "uint16"
        }
      ],
      "name": "isStudentLevelUnique",
      "outputs": [
        {
          "internalType": "bool",
          "name": "",
          "type": "bool"
        }
      ],
      "stateMutability": "view",
      "type": "function"
    }
  ],
  "bytecode": "0x608060405234801561001057600080fd5b50611623806100206000396000f3fe60806040523480156200001157600080fd5b5060043610620000525760003560e01c806336a07a8f146200005757806376b0d2b1146200008d578063d240594b14620000c3578063e390556814620000e3575b600080fd5b6200007560048036038101906200006f919062000a5c565b62000119565b60405162000084919062000ac0565b60405180910390f35b620000ab6004803603810190620000a5919062000add565b62000305565b604051620000ba919062000bdd565b60405180910390f35b620000e16004803603810190620000db919062000c66565b620005ba565b005b620001016004803603810190620000fb919062000add565b62000751565b60405162000110919062000bdd565b60405180910390f35b600080600090505b600180549050811015620002f9576001818154811062000146576200014562000cc2565b5b9060005260206000200160009054906101000a900473ffffffffffffffffffffffffffffffffffffffff1673ffffffffffffffffffffffffffffffffffffffff166351546e656040518163ffffffff1660e01b815260040160206040518083038186803b158015620001b757600080fd5b505afa158015620001cc573d6000803e3d6000fd5b505050506040513d601f19601f82011682018060405250810190620001f2919062000d08565b61ffff168461ffff16148015620002d25750600181815481106200021b576200021a62000cc2565b5b9060005260206000200160009054906101000a900473ffffffffffffffffffffffffffffffffffffffff1673ffffffffffffffffffffffffffffffffffffffff16630e06622e6040518163ffffffff1660e01b815260040160206040518083038186803b1580156200028c57600080fd5b505afa158015620002a1573d6000803e3d6000fd5b505050506040513d601f19601f82011682018060405250810190620002c7919062000d08565b61ffff168361ffff16145b15620002e3576000915050620002ff565b8080620002f09062000d73565b91505062000121565b50600190505b92915050565b6060600060018054905067ffffffffffffffff8111156200032b576200032a62000dc1565b5b6040519080825280602002602001820160405280156200035a5781602001602082028036833780820191505090505b50905060008060005b6001805490508161ffff1610156200056a578561ffff1660018261ffff168154811062000395576200039462000cc2565b5b9060005260206000200160009054906101000a900473ffffffffffffffffffffffffffffffffffffffff1673ffffffffffffffffffffffffffffffffffffffff166351546e656040518163ffffffff1660e01b815260040160206040518083038186803b1580156200040657600080fd5b505afa1580156200041b573d6000803e3d6000fd5b505050506040513d601f19601f8201168201806040525081019062000441919062000d08565b61ffff16141562000554576000915060018161ffff16815481106200046b576200046a62000cc2565b5b9060005260206000200160009054906101000a900473ffffffffffffffffffffffffffffffffffffffff1673ffffffffffffffffffffffffffffffffffffffff16630e06622e6040518163ffffffff1660e01b815260040160206040518083038186803b158015620004dc57600080fd5b505afa158015620004f1573d6000803e3d6000fd5b505050506040513d601f19601f8201168201806040525081019062000517919062000d08565b8484815181106200052d576200052c62000cc2565b5b602002602001019061ffff16908161ffff16815250508280620005509062000d73565b9350505b8080620005619062000df0565b91505062000363565b508015620005af576040517f08c379a0000000000000000000000000000000000000000000000000000000008152600401620005a69062000e81565b60405180910390fd5b829350505050919050565b620005c6838362000119565b156200070f5760008060009054906101000a900461ffff16848484604051620005ef9062000a0a565b620005fe949392919062000ec5565b604051809103906000f0801580156200061b573d6000803e3d6000fd5b5090506001819080600181540180825580915050600190039060005260206000200160009091909190916101000a81548173ffffffffffffffffffffffffffffffffffffffff021916908373ffffffffffffffffffffffffffffffffffffffff1602179055507f0e130d7808e6c3f3f95dcbab5b1358e6e4d33d441a9b6253b93a5a6266dfc82b60008054906101000a900461ffff168585604051620006c49392919062000f12565b60405180910390a160008081819054906101000a900461ffff1680929190620006ed9062000df0565b91906101000a81548161ffff021916908361ffff16021790555050506200074c565b6040517f08c379a0000000000000000000000000000000000000000000000000000000008152600401620007439062000fc5565b60405180910390fd5b505050565b6060600060018054905067ffffffffffffffff81111562000777576200077662000dc1565b5b604051908082528060200260200182016040528015620007a65781602001602082028036833780820191505090505b5090506000806001905060005b6001805490508161ffff161015620009ba578561ffff1660018261ffff1681548110620007e557620007e462000cc2565b5b9060005260206000200160009054906101000a900473ffffffffffffffffffffffffffffffffffffffff1673ffffffffffffffffffffffffffffffffffffffff16630e06622e6040518163ffffffff1660e01b815260040160206040518083038186803b1580156200085657600080fd5b505afa1580156200086b573d6000803e3d6000fd5b505050506040513d601f19601f8201168201806040525081019062000891919062000d08565b61ffff161415620009a4576000915060018161ffff1681548110620008bb57620008ba62000cc2565b5b9060005260206000200160009054906101000a900473ffffffffffffffffffffffffffffffffffffffff1673ffffffffffffffffffffffffffffffffffffffff166351546e656040518163ffffffff1660e01b815260040160206040518083038186803b1580156200092c57600080fd5b505afa15801562000941573d6000803e3d6000fd5b505050506040513d601f19601f8201168201806040525081019062000967919062000d08565b8484815181106200097d576200097c62000cc2565b5b602002602001019061ffff16908161ffff16815250508280620009a09062000d73565b9350505b8080620009b19062000df0565b915050620007b3565b508015620009ff576040517f08c379a0000000000000000000000000000000000000000000000000000000008152600401620009f69062000e81565b60405180910390fd5b829350505050919050565b6106068062000fe883390190565b600080fd5b600061ffff82169050919050565b62000a368162000a1d565b811462000a4257600080fd5b50565b60008135905062000a568162000a2b565b92915050565b6000806040838503121562000a765762000a7562000a18565b5b600062000a868582860162000a45565b925050602062000a998582860162000a45565b9150509250929050565b60008115159050919050565b62000aba8162000aa3565b82525050565b600060208201905062000ad7600083018462000aaf565b92915050565b60006020828403121562000af65762000af562000a18565b5b600062000b068482850162000a45565b91505092915050565b600081519050919050565b600082825260208201905092915050565b6000819050602082019050919050565b62000b468162000a1d565b82525050565b600062000b5a838362000b3b565b60208301905092915050565b6000602082019050919050565b600062000b808262000b0f565b62000b8c818562000b1a565b935062000b998362000b2b565b8060005b8381101562000bd057815162000bb4888262000b4c565b975062000bc18362000b66565b92505060018101905062000b9d565b5085935050505092915050565b6000602082019050818103600083015262000bf9818462000b73565b905092915050565b600073ffffffffffffffffffffffffffffffffffffffff82169050919050565b600062000c2e8262000c01565b9050919050565b62000c408162000c21565b811462000c4c57600080fd5b50565b60008135905062000c608162000c35565b92915050565b60008060006060848603121562000c825762000c8162000a18565b5b600062000c928682870162000a45565b935050602062000ca58682870162000a45565b925050604062000cb88682870162000c4f565b9150509250925092565b7f4e487b7100000000000000000000000000000000000000000000000000000000600052603260045260246000fd5b60008151905062000d028162000a2b565b92915050565b60006020828403121562000d215762000d2062000a18565b5b600062000d318482850162000cf1565b91505092915050565b7f4e487b7100000000000000000000000000000000000000000000000000000000600052601160045260246000fd5b6000819050919050565b600062000d808262000d69565b91507fffffffffffffffffffffffffffffffffffffffffffffffffffffffffffffffff82141562000db65762000db562000d3a565b5b600182019050919050565b7f4e487b7100000000000000000000000000000000000000000000000000000000600052604160045260246000fd5b600062000dfd8262000a1d565b915061ffff82141562000e155762000e1462000d3a565b5b600182019050919050565b600082825260208201905092915050565b7f4e6f206f626a65637420666f756e640000000000000000000000000000000000600082015250565b600062000e69600f8362000e20565b915062000e768262000e31565b602082019050919050565b6000602082019050818103600083015262000e9c8162000e5a565b9050919050565b62000eae8162000a1d565b82525050565b62000ebf8162000c21565b82525050565b600060808201905062000edc600083018762000ea3565b62000eeb602083018662000ea3565b62000efa604083018562000ea3565b62000f09606083018462000eb4565b95945050505050565b600060608201905062000f29600083018662000ea3565b62000f38602083018562000ea3565b62000f47604083018462000ea3565b949350505050565b7f546869732073747564656e742d4c6576656c20616c726561647920657869737460008201527f7300000000000000000000000000000000000000000000000000000000000000602082015250565b600062000fad60218362000e20565b915062000fba8262000f4f565b604082019050919050565b6000602082019050818103600083015262000fe08162000f9e565b905091905056fe608060405234801561001057600080fd5b5060405161060638038061060683398181016040528101906100329190610318565b80600060086101000a81548173ffffffffffffffffffffffffffffffffffffffff021916908373ffffffffffffffffffffffffffffffffffffffff16021790555060008060089054906101000a900473ffffffffffffffffffffffffffffffffffffffff16905060008173ffffffffffffffffffffffffffffffffffffffff1663f110ecff856040518263ffffffff1660e01b81526004016100d4919061038e565b60206040518083038186803b1580156100ec57600080fd5b505afa158015610100573d6000803e3d6000fd5b505050506040513d601f19601f8201168201806040525081019061012491906103e7565b90508073ffffffffffffffffffffffffffffffffffffffff1663cf156d7e60018373ffffffffffffffffffffffffffffffffffffffff16639dbd916b6040518163ffffffff1660e01b815260040160206040518083038186803b15801561018a57600080fd5b505afa15801561019e573d6000803e3d6000fd5b505050506040513d601f19601f820116820180604052508101906101c29190610414565b6101cc9190610470565b6040518263ffffffff1660e01b81526004016101e8919061038e565b600060405180830381600087803b15801561020257600080fd5b505af1158015610216573d6000803e3d6000fd5b50505050846000806101000a81548161ffff021916908361ffff16021790555083600060026101000a81548161ffff021916908361ffff16021790555085600060046101000a81548161ffff021916908361ffff1602179055505050505050506104a4565b600080fd5b600061ffff82169050919050565b61029781610280565b81146102a257600080fd5b50565b6000815190506102b48161028e565b92915050565b600073ffffffffffffffffffffffffffffffffffffffff82169050919050565b60006102e5826102ba565b9050919050565b6102f5816102da565b811461030057600080fd5b50565b600081519050610312816102ec565b92915050565b600080600080608085870312156103325761033161027b565b5b6000610340878288016102a5565b9450506020610351878288016102a5565b9350506040610362878288016102a5565b925050606061037387828801610303565b91505092959194509250565b61038881610280565b82525050565b60006020820190506103a3600083018461037f565b92915050565b60006103b4826102da565b9050919050565b6103c4816103a9565b81146103cf57600080fd5b50565b6000815190506103e1816103bb565b92915050565b6000602082840312156103fd576103fc61027b565b5b600061040b848285016103d2565b91505092915050565b60006020828403121561042a5761042961027b565b5b6000610438848285016102a5565b91505092915050565b7f4e487b7100000000000000000000000000000000000000000000000000000000600052601160045260246000fd5b600061047b82610280565b915061048683610280565b92508282101561049957610498610441565b5b828203905092915050565b610153806104b36000396000f3fe608060405234801561001057600080fd5b50600436106100415760003560e01c80630e06622e1461004657806351546e65146100645780635d1ca63114610082575b600080fd5b61004e6100a0565b60405161005b9190610102565b60405180910390f35b61006c6100b7565b6040516100799190610102565b60405180910390f35b61008a6100ce565b6040516100979190610102565b60405180910390f35b60008060029054906101000a900461ffff16905090565b60008060009054906101000a900461ffff16905090565b60008060049054906101000a900461ffff16905090565b600061ffff82169050919050565b6100fc816100e5565b82525050565b600060208201905061011760008301846100f3565b9291505056fea26469706673582212207be4f7209380818584798f335b93edbf4672f4c10d045536666c7dc68d449e7d64736f6c63430008090033a2646970667358221220a45e73e6493e47a83508bc5c6a8ac484ec17a725005972c9f877280619fd7ec764736f6c63430008090033",
  "linkReferences": {},
  "deployedLinkReferences": {}
}