{
  "_format": "hh-sol-artifact-1",
  "contractName": "StudentLevelFactory",
  "sourceName": "contracts/StudentLevelFactory.sol",
  "abi": [
    {
      "anonymous": false,
      "inputs": [
        {
          "indexed": false,
          "internalType": "uint16",
          "name": "",
          "type": "uint16"
        },
        {
          "indexed": false,
          "internalType": "uint16",
          "name": "",
          "type": "uint16"
        },
        {
          "indexed": false,
          "internalType": "uint16",
          "name": "",
          "type": "uint16"
        }
      ],
      "name": "studentLevelCreated",
      "type": "event"
    },
    {
      "inputs": [
        {
          "internalType": "uint16",
          "name": "_studentId",
          "type": "uint16"
        },
        {
          "internalType": "uint16",
          "name": "_levelId",
          "type": "uint16"
        },
        {
          "internalType": "address",
          "name": "_lvlFactory",
          "type": "address"
        }
      ],
      "name": "createStudentLevel",
      "outputs": [],
      "stateMutability": "nonpayable",
      "type": "function"
    },
    {
      "inputs": [
        {
          "internalType": "uint16",
          "name": "_levelId",
          "type": "uint16"
        }
      ],
      "name": "getLevelStudentsId",
      "outputs": [
        {
          "internalType": "uint16[]",
          "name": "",
          "type": "uint16[]"
        }
      ],
      "stateMutability": "view",
      "type": "function"
    },
    {
      "inputs": [
        {
          "internalType": "uint16",
          "name": "_studentId",
          "type": "uint16"
        }
      ],
      "name": "getStudentLevelsId",
      "outputs": [
        {
          "internalType": "uint16[]",
          "name": "",
          "type": "uint16[]"
        }
      ],
      "stateMutability": "view",
      "type": "function"
    },
    {
      "inputs": [
        {
          "internalType": "uint16",
          "name": "_studentId",
          "type": "uint16"
        },
        {
          "internalType": "uint16",
          "name": "_levelId",
          "type": "uint16"
        }
      ],
      "name": "isStudentLevelUnique",
      "outputs": [
        {
          "internalType": "bool",
          "name": "",
          "type": "bool"
        }
      ],
      "stateMutability": "view",
      "type": "function"
    }
  ],
  "bytecode": "0x608060405234801561001057600080fd5b5061151f806100206000396000f3fe60806040523480156200001157600080fd5b5060043610620000525760003560e01c806336a07a8f146200005757806376b0d2b1146200008d578063d240594b14620000c3578063e390556814620000e3575b600080fd5b6200007560048036038101906200006f9190620009ca565b62000119565b60405162000084919062000a2e565b60405180910390f35b620000ab6004803603810190620000a5919062000a4b565b62000305565b604051620000ba919062000b4b565b60405180910390f35b620000e16004803603810190620000db919062000bd4565b62000573565b005b620001016004803603810190620000fb919062000a4b565b6200070a565b60405162000110919062000b4b565b60405180910390f35b600080600090505b600180549050811015620002f9576001818154811062000146576200014562000c30565b5b9060005260206000200160009054906101000a900473ffffffffffffffffffffffffffffffffffffffff1673ffffffffffffffffffffffffffffffffffffffff166351546e656040518163ffffffff1660e01b815260040160206040518083038186803b158015620001b757600080fd5b505afa158015620001cc573d6000803e3d6000fd5b505050506040513d601f19601f82011682018060405250810190620001f2919062000c76565b61ffff168461ffff16148015620002d25750600181815481106200021b576200021a62000c30565b5b9060005260206000200160009054906101000a900473ffffffffffffffffffffffffffffffffffffffff1673ffffffffffffffffffffffffffffffffffffffff16630e06622e6040518163ffffffff1660e01b815260040160206040518083038186803b1580156200028c57600080fd5b505afa158015620002a1573d6000803e3d6000fd5b505050506040513d601f19601f82011682018060405250810190620002c7919062000c76565b61ffff168361ffff16145b15620002e3576000915050620002ff565b8080620002f09062000ce1565b91505062000121565b50600190505b92915050565b6060600060018054905067ffffffffffffffff8111156200032b576200032a62000d2f565b5b6040519080825280602002602001820160405280156200035a5781602001602082028036833780820191505090505b509050600080600090505b6001805490508161ffff16101562000568578461ffff1660018261ffff168154811062000397576200039662000c30565b5b9060005260206000200160009054906101000a900473ffffffffffffffffffffffffffffffffffffffff1673ffffffffffffffffffffffffffffffffffffffff166351546e656040518163ffffffff1660e01b815260040160206040518083038186803b1580156200040857600080fd5b505afa1580156200041d573d6000803e3d6000fd5b505050506040513d601f19601f8201168201806040525081019062000443919062000c76565b61ffff161415620005525760018161ffff168154811062000469576200046862000c30565b5b9060005260206000200160009054906101000a900473ffffffffffffffffffffffffffffffffffffffff1673ffffffffffffffffffffffffffffffffffffffff16630e06622e6040518163ffffffff1660e01b815260040160206040518083038186803b158015620004da57600080fd5b505afa158015620004ef573d6000803e3d6000fd5b505050506040513d601f19601f8201168201806040525081019062000515919062000c76565b8383815181106200052b576200052a62000c30565b5b602002602001019061ffff16908161ffff168152505081806200054e9062000ce1565b9250505b80806200055f9062000d5e565b91505062000365565b508192505050919050565b6200057f838362000119565b15620006c85760008060009054906101000a900461ffff16848484604051620005a89062000978565b620005b7949392919062000db0565b604051809103906000f080158015620005d4573d6000803e3d6000fd5b5090506001819080600181540180825580915050600190039060005260206000200160009091909190916101000a81548173ffffffffffffffffffffffffffffffffffffffff021916908373ffffffffffffffffffffffffffffffffffffffff1602179055507f0e130d7808e6c3f3f95dcbab5b1358e6e4d33d441a9b6253b93a5a6266dfc82b60008054906101000a900461ffff1685856040516200067d9392919062000dfd565b60405180910390a160008081819054906101000a900461ffff1680929190620006a69062000d5e565b91906101000a81548161ffff021916908361ffff160217905550505062000705565b6040517f08c379a0000000000000000000000000000000000000000000000000000000008152600401620006fc9062000ec1565b60405180910390fd5b505050565b6060600060018054905067ffffffffffffffff81111562000730576200072f62000d2f565b5b6040519080825280602002602001820160405280156200075f5781602001602082028036833780820191505090505b509050600080600090505b6001805490508161ffff1610156200096d578461ffff1660018261ffff16815481106200079c576200079b62000c30565b5b9060005260206000200160009054906101000a900473ffffffffffffffffffffffffffffffffffffffff1673ffffffffffffffffffffffffffffffffffffffff16630e06622e6040518163ffffffff1660e01b815260040160206040518083038186803b1580156200080d57600080fd5b505afa15801562000822573d6000803e3d6000fd5b505050506040513d601f19601f8201168201806040525081019062000848919062000c76565b61ffff161415620009575760018161ffff16815481106200086e576200086d62000c30565b5b9060005260206000200160009054906101000a900473ffffffffffffffffffffffffffffffffffffffff1673ffffffffffffffffffffffffffffffffffffffff166351546e656040518163ffffffff1660e01b815260040160206040518083038186803b158015620008df57600080fd5b505afa158015620008f4573d6000803e3d6000fd5b505050506040513d601f19601f820116820180604052508101906200091a919062000c76565b83838151811062000930576200092f62000c30565b5b602002602001019061ffff16908161ffff16815250508180620009539062000ce1565b9250505b8080620009649062000d5e565b9150506200076a565b508192505050919050565b6106068062000ee483390190565b600080fd5b600061ffff82169050919050565b620009a4816200098b565b8114620009b057600080fd5b50565b600081359050620009c48162000999565b92915050565b60008060408385031215620009e457620009e362000986565b5b6000620009f485828601620009b3565b925050602062000a0785828601620009b3565b9150509250929050565b60008115159050919050565b62000a288162000a11565b82525050565b600060208201905062000a45600083018462000a1d565b92915050565b60006020828403121562000a645762000a6362000986565b5b600062000a7484828501620009b3565b91505092915050565b600081519050919050565b600082825260208201905092915050565b6000819050602082019050919050565b62000ab4816200098b565b82525050565b600062000ac8838362000aa9565b60208301905092915050565b6000602082019050919050565b600062000aee8262000a7d565b62000afa818562000a88565b935062000b078362000a99565b8060005b8381101562000b3e57815162000b22888262000aba565b975062000b2f8362000ad4565b92505060018101905062000b0b565b5085935050505092915050565b6000602082019050818103600083015262000b67818462000ae1565b905092915050565b600073ffffffffffffffffffffffffffffffffffffffff82169050919050565b600062000b9c8262000b6f565b9050919050565b62000bae8162000b8f565b811462000bba57600080fd5b50565b60008135905062000bce8162000ba3565b92915050565b60008060006060848603121562000bf05762000bef62000986565b5b600062000c0086828701620009b3565b935050602062000c1386828701620009b3565b925050604062000c268682870162000bbd565b9150509250925092565b7f4e487b7100000000000000000000000000000000000000000000000000000000600052603260045260246000fd5b60008151905062000c708162000999565b92915050565b60006020828403121562000c8f5762000c8e62000986565b5b600062000c9f8482850162000c5f565b91505092915050565b7f4e487b7100000000000000000000000000000000000000000000000000000000600052601160045260246000fd5b6000819050919050565b600062000cee8262000cd7565b91507fffffffffffffffffffffffffffffffffffffffffffffffffffffffffffffffff82141562000d245762000d2362000ca8565b5b600182019050919050565b7f4e487b7100000000000000000000000000000000000000000000000000000000600052604160045260246000fd5b600062000d6b826200098b565b915061ffff82141562000d835762000d8262000ca8565b5b600182019050919050565b62000d99816200098b565b82525050565b62000daa8162000b8f565b82525050565b600060808201905062000dc7600083018762000d8e565b62000dd6602083018662000d8e565b62000de5604083018562000d8e565b62000df4606083018462000d9f565b95945050505050565b600060608201905062000e14600083018662000d8e565b62000e23602083018562000d8e565b62000e32604083018462000d8e565b949350505050565b600082825260208201905092915050565b7f546869732073747564656e742d4c6576656c20616c726561647920657869737460008201527f7300000000000000000000000000000000000000000000000000000000000000602082015250565b600062000ea960218362000e3a565b915062000eb68262000e4b565b604082019050919050565b6000602082019050818103600083015262000edc8162000e9a565b905091905056fe608060405234801561001057600080fd5b5060405161060638038061060683398181016040528101906100329190610318565b80600060086101000a81548173ffffffffffffffffffffffffffffffffffffffff021916908373ffffffffffffffffffffffffffffffffffffffff16021790555060008060089054906101000a900473ffffffffffffffffffffffffffffffffffffffff16905060008173ffffffffffffffffffffffffffffffffffffffff1663f110ecff856040518263ffffffff1660e01b81526004016100d4919061038e565b60206040518083038186803b1580156100ec57600080fd5b505afa158015610100573d6000803e3d6000fd5b505050506040513d601f19601f8201168201806040525081019061012491906103e7565b90508073ffffffffffffffffffffffffffffffffffffffff1663cf156d7e60018373ffffffffffffffffffffffffffffffffffffffff16639dbd916b6040518163ffffffff1660e01b815260040160206040518083038186803b15801561018a57600080fd5b505afa15801561019e573d6000803e3d6000fd5b505050506040513d601f19601f820116820180604052508101906101c29190610414565b6101cc9190610470565b6040518263ffffffff1660e01b81526004016101e8919061038e565b600060405180830381600087803b15801561020257600080fd5b505af1158015610216573d6000803e3d6000fd5b50505050846000806101000a81548161ffff021916908361ffff16021790555083600060026101000a81548161ffff021916908361ffff16021790555085600060046101000a81548161ffff021916908361ffff1602179055505050505050506104a4565b600080fd5b600061ffff82169050919050565b61029781610280565b81146102a257600080fd5b50565b6000815190506102b48161028e565b92915050565b600073ffffffffffffffffffffffffffffffffffffffff82169050919050565b60006102e5826102ba565b9050919050565b6102f5816102da565b811461030057600080fd5b50565b600081519050610312816102ec565b92915050565b600080600080608085870312156103325761033161027b565b5b6000610340878288016102a5565b9450506020610351878288016102a5565b9350506040610362878288016102a5565b925050606061037387828801610303565b91505092959194509250565b61038881610280565b82525050565b60006020820190506103a3600083018461037f565b92915050565b60006103b4826102da565b9050919050565b6103c4816103a9565b81146103cf57600080fd5b50565b6000815190506103e1816103bb565b92915050565b6000602082840312156103fd576103fc61027b565b5b600061040b848285016103d2565b91505092915050565b60006020828403121561042a5761042961027b565b5b6000610438848285016102a5565b91505092915050565b7f4e487b7100000000000000000000000000000000000000000000000000000000600052601160045260246000fd5b600061047b82610280565b915061048683610280565b92508282101561049957610498610441565b5b828203905092915050565b610153806104b36000396000f3fe608060405234801561001057600080fd5b50600436106100415760003560e01c80630e06622e1461004657806351546e65146100645780635d1ca63114610082575b600080fd5b61004e6100a0565b60405161005b9190610102565b60405180910390f35b61006c6100b7565b6040516100799190610102565b60405180910390f35b61008a6100ce565b6040516100979190610102565b60405180910390f35b60008060029054906101000a900461ffff16905090565b60008060009054906101000a900461ffff16905090565b60008060049054906101000a900461ffff16905090565b600061ffff82169050919050565b6100fc816100e5565b82525050565b600060208201905061011760008301846100f3565b9291505056fea26469706673582212207be4f7209380818584798f335b93edbf4672f4c10d045536666c7dc68d449e7d64736f6c63430008090033a264697066735822122097c3db794b54b5818426ced5788ba94d477f28c98e198afd99c0631b1e2fc94664736f6c63430008090033",
  "linkReferences": {},
  "deployedLinkReferences": {}
}