{
  "_format": "hh-sol-artifact-1",
  "contractName": "StudentLevelFactory",
  "sourceName": "contracts/StudentLevelFactory.sol",
  "abi": [
    {
      "anonymous": false,
      "inputs": [
        {
          "indexed": false,
          "internalType": "uint16",
          "name": "",
          "type": "uint16"
        },
        {
          "indexed": false,
          "internalType": "uint16",
          "name": "",
          "type": "uint16"
        },
        {
          "indexed": false,
          "internalType": "uint16",
          "name": "",
          "type": "uint16"
        }
      ],
      "name": "studentLevelCreated",
      "type": "event"
    },
    {
      "inputs": [
        {
          "internalType": "uint16",
          "name": "_studentId",
          "type": "uint16"
        },
        {
          "internalType": "uint16",
          "name": "_levelId",
          "type": "uint16"
        },
        {
          "internalType": "address",
          "name": "_lvlFactory",
          "type": "address"
        }
      ],
      "name": "createStudentLevel",
      "outputs": [],
      "stateMutability": "nonpayable",
      "type": "function"
    },
    {
      "inputs": [
        {
          "internalType": "uint16",
          "name": "_levelId",
          "type": "uint16"
        }
      ],
      "name": "getLevelStudentsId",
      "outputs": [
        {
          "internalType": "uint16[]",
          "name": "",
          "type": "uint16[]"
        }
      ],
      "stateMutability": "view",
      "type": "function"
    },
    {
      "inputs": [
        {
          "internalType": "uint16",
          "name": "_studentId",
          "type": "uint16"
        }
      ],
      "name": "getStudentLevelsId",
      "outputs": [
        {
          "internalType": "uint16[]",
          "name": "",
          "type": "uint16[]"
        }
      ],
      "stateMutability": "view",
      "type": "function"
    }
  ],
  "bytecode": "0x608060405234801561001057600080fd5b50611172806100206000396000f3fe60806040523480156200001157600080fd5b5060043610620000465760003560e01c806376b0d2b1146200004b578063d240594b1462000081578063e390556814620000a1575b600080fd5b62000069600480360381019062000063919062000747565b620000d7565b60405162000078919062000847565b60405180910390f35b6200009f6004803603810190620000999190620008d0565b62000345565b005b620000bf6004803603810190620000b9919062000747565b62000487565b604051620000ce919062000847565b60405180910390f35b6060600060018054905067ffffffffffffffff811115620000fd57620000fc6200092c565b5b6040519080825280602002602001820160405280156200012c5781602001602082028036833780820191505090505b509050600080600090505b6001805490508161ffff1610156200033a578461ffff1660018261ffff16815481106200016957620001686200095b565b5b9060005260206000200160009054906101000a900473ffffffffffffffffffffffffffffffffffffffff1673ffffffffffffffffffffffffffffffffffffffff166351546e656040518163ffffffff1660e01b815260040160206040518083038186803b158015620001da57600080fd5b505afa158015620001ef573d6000803e3d6000fd5b505050506040513d601f19601f82011682018060405250810190620002159190620009a1565b61ffff161415620003245760018161ffff16815481106200023b576200023a6200095b565b5b9060005260206000200160009054906101000a900473ffffffffffffffffffffffffffffffffffffffff1673ffffffffffffffffffffffffffffffffffffffff16630e06622e6040518163ffffffff1660e01b815260040160206040518083038186803b158015620002ac57600080fd5b505afa158015620002c1573d6000803e3d6000fd5b505050506040513d601f19601f82011682018060405250810190620002e79190620009a1565b838381518110620002fd57620002fc6200095b565b5b602002602001019061ffff16908161ffff16815250508180620003209062000a0c565b9250505b8080620003319062000a5a565b91505062000137565b508192505050919050565b60008060009054906101000a900461ffff168484846040516200036890620006f5565b62000377949392919062000aac565b604051809103906000f08015801562000394573d6000803e3d6000fd5b5090506001819080600181540180825580915050600190039060005260206000200160009091909190916101000a81548173ffffffffffffffffffffffffffffffffffffffff021916908373ffffffffffffffffffffffffffffffffffffffff1602179055507f0e130d7808e6c3f3f95dcbab5b1358e6e4d33d441a9b6253b93a5a6266dfc82b60008054906101000a900461ffff1685856040516200043d9392919062000af9565b60405180910390a160008081819054906101000a900461ffff1680929190620004669062000a5a565b91906101000a81548161ffff021916908361ffff1602179055505050505050565b6060600060018054905067ffffffffffffffff811115620004ad57620004ac6200092c565b5b604051908082528060200260200182016040528015620004dc5781602001602082028036833780820191505090505b509050600080600090505b6001805490508161ffff161015620006ea578461ffff1660018261ffff16815481106200051957620005186200095b565b5b9060005260206000200160009054906101000a900473ffffffffffffffffffffffffffffffffffffffff1673ffffffffffffffffffffffffffffffffffffffff16630e06622e6040518163ffffffff1660e01b815260040160206040518083038186803b1580156200058a57600080fd5b505afa1580156200059f573d6000803e3d6000fd5b505050506040513d601f19601f82011682018060405250810190620005c59190620009a1565b61ffff161415620006d45760018161ffff1681548110620005eb57620005ea6200095b565b5b9060005260206000200160009054906101000a900473ffffffffffffffffffffffffffffffffffffffff1673ffffffffffffffffffffffffffffffffffffffff166351546e656040518163ffffffff1660e01b815260040160206040518083038186803b1580156200065c57600080fd5b505afa15801562000671573d6000803e3d6000fd5b505050506040513d601f19601f82011682018060405250810190620006979190620009a1565b838381518110620006ad57620006ac6200095b565b5b602002602001019061ffff16908161ffff16815250508180620006d09062000a0c565b9250505b8080620006e19062000a5a565b915050620004e7565b508192505050919050565b6106068062000b3783390190565b600080fd5b600061ffff82169050919050565b620007218162000708565b81146200072d57600080fd5b50565b600081359050620007418162000716565b92915050565b60006020828403121562000760576200075f62000703565b5b6000620007708482850162000730565b91505092915050565b600081519050919050565b600082825260208201905092915050565b6000819050602082019050919050565b620007b08162000708565b82525050565b6000620007c48383620007a5565b60208301905092915050565b6000602082019050919050565b6000620007ea8262000779565b620007f6818562000784565b9350620008038362000795565b8060005b838110156200083a5781516200081e8882620007b6565b97506200082b83620007d0565b92505060018101905062000807565b5085935050505092915050565b60006020820190508181036000830152620008638184620007dd565b905092915050565b600073ffffffffffffffffffffffffffffffffffffffff82169050919050565b600062000898826200086b565b9050919050565b620008aa816200088b565b8114620008b657600080fd5b50565b600081359050620008ca816200089f565b92915050565b600080600060608486031215620008ec57620008eb62000703565b5b6000620008fc8682870162000730565b93505060206200090f8682870162000730565b92505060406200092286828701620008b9565b9150509250925092565b7f4e487b7100000000000000000000000000000000000000000000000000000000600052604160045260246000fd5b7f4e487b7100000000000000000000000000000000000000000000000000000000600052603260045260246000fd5b6000815190506200099b8162000716565b92915050565b600060208284031215620009ba57620009b962000703565b5b6000620009ca848285016200098a565b91505092915050565b7f4e487b7100000000000000000000000000000000000000000000000000000000600052601160045260246000fd5b6000819050919050565b600062000a198262000a02565b91507fffffffffffffffffffffffffffffffffffffffffffffffffffffffffffffffff82141562000a4f5762000a4e620009d3565b5b600182019050919050565b600062000a678262000708565b915061ffff82141562000a7f5762000a7e620009d3565b5b600182019050919050565b62000a958162000708565b82525050565b62000aa6816200088b565b82525050565b600060808201905062000ac3600083018762000a8a565b62000ad2602083018662000a8a565b62000ae1604083018562000a8a565b62000af0606083018462000a9b565b95945050505050565b600060608201905062000b10600083018662000a8a565b62000b1f602083018562000a8a565b62000b2e604083018462000a8a565b94935050505056fe608060405234801561001057600080fd5b5060405161060638038061060683398181016040528101906100329190610318565b80600060086101000a81548173ffffffffffffffffffffffffffffffffffffffff021916908373ffffffffffffffffffffffffffffffffffffffff16021790555060008060089054906101000a900473ffffffffffffffffffffffffffffffffffffffff16905060008173ffffffffffffffffffffffffffffffffffffffff1663f110ecff856040518263ffffffff1660e01b81526004016100d4919061038e565b60206040518083038186803b1580156100ec57600080fd5b505afa158015610100573d6000803e3d6000fd5b505050506040513d601f19601f8201168201806040525081019061012491906103e7565b90508073ffffffffffffffffffffffffffffffffffffffff1663cf156d7e60018373ffffffffffffffffffffffffffffffffffffffff16639dbd916b6040518163ffffffff1660e01b815260040160206040518083038186803b15801561018a57600080fd5b505afa15801561019e573d6000803e3d6000fd5b505050506040513d601f19601f820116820180604052508101906101c29190610414565b6101cc9190610470565b6040518263ffffffff1660e01b81526004016101e8919061038e565b600060405180830381600087803b15801561020257600080fd5b505af1158015610216573d6000803e3d6000fd5b50505050846000806101000a81548161ffff021916908361ffff16021790555083600060026101000a81548161ffff021916908361ffff16021790555085600060046101000a81548161ffff021916908361ffff1602179055505050505050506104a4565b600080fd5b600061ffff82169050919050565b61029781610280565b81146102a257600080fd5b50565b6000815190506102b48161028e565b92915050565b600073ffffffffffffffffffffffffffffffffffffffff82169050919050565b60006102e5826102ba565b9050919050565b6102f5816102da565b811461030057600080fd5b50565b600081519050610312816102ec565b92915050565b600080600080608085870312156103325761033161027b565b5b6000610340878288016102a5565b9450506020610351878288016102a5565b9350506040610362878288016102a5565b925050606061037387828801610303565b91505092959194509250565b61038881610280565b82525050565b60006020820190506103a3600083018461037f565b92915050565b60006103b4826102da565b9050919050565b6103c4816103a9565b81146103cf57600080fd5b50565b6000815190506103e1816103bb565b92915050565b6000602082840312156103fd576103fc61027b565b5b600061040b848285016103d2565b91505092915050565b60006020828403121561042a5761042961027b565b5b6000610438848285016102a5565b91505092915050565b7f4e487b7100000000000000000000000000000000000000000000000000000000600052601160045260246000fd5b600061047b82610280565b915061048683610280565b92508282101561049957610498610441565b5b828203905092915050565b610153806104b36000396000f3fe608060405234801561001057600080fd5b50600436106100415760003560e01c80630e06622e1461004657806351546e65146100645780635d1ca63114610082575b600080fd5b61004e6100a0565b60405161005b9190610102565b60405180910390f35b61006c6100b7565b6040516100799190610102565b60405180910390f35b61008a6100ce565b6040516100979190610102565b60405180910390f35b60008060029054906101000a900461ffff16905090565b60008060009054906101000a900461ffff16905090565b60008060049054906101000a900461ffff16905090565b600061ffff82169050919050565b6100fc816100e5565b82525050565b600060208201905061011760008301846100f3565b9291505056fea26469706673582212207be4f7209380818584798f335b93edbf4672f4c10d045536666c7dc68d449e7d64736f6c63430008090033a26469706673582212204721b015c7a6285c3609a2f8005c28b5439ea80b7abedb7ee1c3fcb380eae0df64736f6c63430008090033",
  "linkReferences": {},
  "deployedLinkReferences": {}
}